:100000000C9438000C9455000C9455000C946B0023
:100010000C9455000C9455000C9455000C9455000C
:100020000C9455000C9455000C9455000C945500FC
:100030000C9455000C9455000C9455000C945500EC
:100040000C9455000C9455000C9455000C945500DC
:100050000C9455000C9455000C9455000C945500CC
:100060000C9455000C9455000C9455000C945500BC
:1000700011241FBECFEFD4E0DEBFCDBF11E0A0E062
:10008000B1E0EEE6F7E002C005900D92A837B107A7
:10009000D9F721E0A8E7B1E001C01D92A738B20767
:1000A000E1F70E9477000C94B5030C9400008BB725
:1000B00080628BBF86B78E7F86BF3098089580930D
:1000C000001481E080937C0180917C018111FCCF40
:1000D0008091001408951F920F920FB60F92112471
:1000E00010927C010F900FBE0F901F901895CF9328
:1000F000DF93CDB7DEB768970FB6F894DEBF0FBEBB
:10010000CDBFB89AB998BA9885B7806885BF0E9464
:10011000AE018CE090E00E942C0386E091E00E940A
:1001200033030E94570088E191E00E9433037894E2
:1001300089E291E00E9433030E94540184E491E03B
:100140000E9433030E9467018AE591E00E94330315
:100150008CE691E09A83898382E791E09C838B838C
:10016000AE014F5F5F4F60E070E0CE0105960E94E8
:10017000DC00AE014F5F5F4FBE01675F7F4FCE0176
:100180000F960E94DC008AE0FE013F96DE01159684
:1001900001900D928A95E1F70E94A10191E0B19B37
:1001A00003C088B3892788BB88B3892788BBE0E070
:1001B000F0EF3197F1F7F3CF5F926F927F928F92CA
:1001C0009F92AF92BF92CF92DF92EF92FF920F93E6
:1001D0001F93CF93DF933C015B017A01FA01808189
:1001E0009181892B51F5C12CD12C812C912C3EC0B1
:1001F00082E090E00E94BA01EC01B982A882F80185
:1002000080819181998788870E9433039F828E82A3
:10021000552021F0F401D583C48301C06E014E0145
:100220005394052D10E0000F111F0E0D1F1DF80136
:1002300080819181892BE1F619C082E090E00E94D3
:10024000BA016C01FC01B182A082F7018081918129
:10025000F60191878087F701808191810E943303A5
:10026000F601178216824601512CDACFF6019782E9
:100270008682F401D582C4828AE0F601D30101901E
:100280000D928A95E1F7C301DF91CF911F910F91F4
:10029000FF90EF90DF90CF90BF90AF909F908F90A6
:1002A0007F906F905F90089586E090E00E945F00DD
:1002B00090E090937B0180937A0187E090E00E9428
:1002C0005F0090E090937901809378010895E0E0D9
:1002D000F0E18EEA808381EA80838AED808382E187
:1002E000808388EC808388EA80838FE3808385ED38
:1002F000808380E8808381E8808380E5808389ED46
:10030000808381E2808380E2808382E080838BED42
:10031000808380E380838DEA8083108284EA8083F7
:1003200086EA80838FEA80830895806BE0E0F0E1C5
:100330008083862F8F70808362956F706061608389
:10034000089560E080E00E94950108955D9BFECFD6
:100350008CB908955D99FECF8CB108958FE089B96D
:100360008AB188618AB96AEA71E086EA91E00E94FE
:10037000E1020895CF93DF938230910510F482E07B
:1003800090E0E0917F01F091800120E030E0A0E07A
:10039000B0E0309739F14081518148175907B8F0E2
:1003A0004817590771F482819381109729F01396A9
:1003B0009C938E9312972CC09093800180937F0121
:1003C00027C02115310531F04217530718F0A90154
:1003D000DB0101C0EF019A01BD01DF010280F38161
:1003E000E02DD7CF21153105F9F0281B390B24302A
:1003F000310580F48A819B816115710521F0FB0133
:100400009383828304C09093800180937F01FE01D7
:10041000329644C0FE01E20FF31F81939193225064
:100420003109398328833AC020917D0130917E01C2
:10043000232B41F4209102013091030130937E017E
:1004400020937D012091000130910101211531059A
:1004500041F42DB73EB74091040150910501241B92
:10046000350BE0917D01F0917E01E217F307A0F4D6
:100470002E1B3F0B2817390778F0AC014E5F5F4FFA
:100480002417350748F04E0F5F1F50937E014093AD
:100490007D018193919302C0E0E0F0E0CF01DF9114
:1004A000CF910895CF93DF93009709F487C0FC01A3
:1004B000329713821282C0917F01D09180012097E0
:1004C00081F420813181280F391F80917D01909125
:1004D0007E018217930779F5F0937E01E0937D0109
:1004E0006DC0DE0120E030E0AE17BF0750F4129679
:1004F0004D915C9113979D014115510509F1DA0168
:10050000F3CFB383A28340815181840F951F8A1753
:100510009B0771F48D919C911197840F951F029602
:100520009183808312968D919C91139793838283FC
:100530002115310529F4F0938001E0937F013EC03D
:10054000D9011396FC93EE9312974D915D91A40FF0
:10055000B51FEA17FB0779F480819181840F951FFD
:100560000296D90111969C938E9382819381139662
:100570009C938E931297E0E0F0E08A819B81009734
:1005800019F0FE01EC01F9CFCE01029628813981E4
:10059000820F931F20917D0130917E01281739072A
:1005A00069F4309729F41092800110927F0102C003
:1005B00013821282D0937E01C0937D01DF91CF918F
:1005C00008950F931F93CF93DF93EC018B01009756
:1005D00031F46115710519F480E090E038C06EE0E7
:1005E00070E081E090E00E946003FC010097A1F3BD
:1005F00080E883830115110571F01387028781E874
:1006000083838091810190918201892B21F4F09361
:100610008201E09381012097C9F0D187C08783814F
:10062000826083838091830190918401892B71F48E
:10063000F0938401E093830180918501909186017C
:10064000892B21F4F0938601E0938501CF01DF919E
:10065000CF911F910F910895609183017091840152
:100660000E94830308950F931F93CF93DF93E0912C
:100670008301F0918401238121FF1BC0EC0100E084
:1006800010E089916091830170918401DB011896DB
:10069000ED91FC911997882331F00995892B89F305
:1006A0000FEF1FEFEECF8AE00995892B11F4C801F7
:1006B00002C08FEF9FEFDF91CF911F910F910895AF
:1006C0000F931F93CF93DF93869F8001879F100D19
:1006D000969F100D1124C8010E94BA01EC010097E9
:1006E00029F0A80160E070E00E947C03CE01DF9158
:1006F000CF911F910F910895DC0101C06D9341507E
:100700005040E0F708950F931F93CF93DF93182F76
:10071000092FEB018B8181FD03C08FEF9FEF20C07C
:1007200082FF10C04E815F812C813D8142175307AB
:100730007CF4E881F9819F012F5F3F4F3983288343
:10074000108306C0E885F985812F0995892B29F743
:100750002E813F812F5F3F4F3F832E83812F902F2C
:0E076000DF91CF911F910F910895F894FFCF74
:10076E000000870120005561727420696E697469FA
:10077E00616C697A65640D0041444320696E697449
:10078E0069616C697A65640D00476C6F62616C20FB
:10079E00696E746572727570747320656E61626CC9
:1007AE0065640D004A6F79737469636B20696E69B5
:1007BE007469616C697A65640D004F6C65642069BB
:1007CE006E697469616C697A65640D006974656D32
:0807DE0031006974656D320001
:00000001FF
