S0140000636F64655F6279676765726E2E7372656328
S11300000C9426010C9443010C9443010C94590163
S11300100C9443010C9443010C9443010C9443014C
S11300200C9443010C9443010C9443010C9443013C
S11300300C9443010C9443010C9443010C9443012C
S11300400C9443010C9443010C9443010C9443011C
S11300500C9443010C9443010C9443010C9443010C
S11300600C9443010C9443010C9443010C944301FC
S1130070000000000000005F0000000700070014FB
S11300807F147F14242A7F2A1223130864623649BA
S11300905522500005030000001C224100004122AB
S11300A01C00082A1C2A0808083E080800503000D2
S11300B00008080808080060600000201008040216
S11300C03E5149453E00427F40004261514946212C
S11300D041454B311814127F1027454545393C4A98
S11300E049493001710905033649494936064949E8
S11300F0291E00363600000056360000000814227F
S11301004114141414144122140800020151090664
S1130110324979413E7E1111117E7F494949363E6B
S1130120414141227F4141221C7F494949417F0984
S11301300901013E414151327F0808087F00417F97
S113014041002040413F017F081422417F4040404C
S1130150407F0204027F7F0408107F3E4141413EFC
S11301607F090909063E4151215E7F091929464646
S11301704949493101017F01013F4040403F1F206F
S113018040201F7F2018207F631408146303047821
S11301900403615149454300007F414102040810B2
S11301A02041417F000004020102044040404040DD
S11301B0000102040020545454787F4844443838E1
S11301C044444420384444487F3854545418087EE6
S11301D0090102081454543C7F0804047800447D47
S11301E040002040443D00007F10284400417F40EF
S11301F0007C041804787C080404783844444438A7
S11302007C14141408081414187C7C08040408488A
S113021054545420043F4440203C4040207C1C2043
S113022040201C3C4030403C44281028440C505092
S1130230503C4464544C44000836410000007F00A4
S113024000004136080002010302010011241FBE10
S1130250CFEFD4E0DEBFCDBF11E0A0E0B1E0E4E930
S1130260FEE002C005900D92AC38B107D9F721E049
S1130270ACE8B1E001C01D92AB39B207E1F70E94CE
S113028065010C9448070C9400008BB780628BBF07
S113029086B78E7F86BF309808958093001481E0DE
S11302A080939001809190018111FCCF8091001482
S11302B008951F920F920FB60F921124109290017D
S11302C00F900FBE0F901F901895B89AB998BA98CE
S11302D085B7806885BF0E9488028CE090E00E9408
S11302E01B0384E191E00E9422030E94450186E2FF
S11302F091E00E942203789487E391E00E94220314
S11303000E94B90182E591E00E9422030E941B022F
S113031088E691E00E9422030E9466020E94550230
S1130320FF24F3940AE711E0C7E8D1E0B19B03C0CE
S113033088B38F2588BB88B38F2588BB0E94CC01E6
S11303409F938F937F936F931F930F930E94070341
S1130350DF93CF930E94700280E090EF0197F1F752
S11303608DB79EB708960FB6F8949EBF0FBE8DBF8B
S1130370DDCF86E090E00E944D0190E090938F01E4
S113038080938E0187E090E00E944D0190E090936D
S11303908D0180938C0108950F931F93CF93DF9366
S11303A086E090E00E944D01082F10E087E090E085
S11303B00E944D01282F30E080918E0190918F0191
S11303C0081B190B64E6609FC001619F900D112406
S11303D040918C0150918D01241B350B629FE001EB
S11303E0639FD00D1124EFE7F0E0BF010E94940257
S11303F08B01CE01BF010E9494029B01C901B80187
S1130400DF91CF911F910F910895E82FF0E0B097FD
S1130410CF01880F991F880F991FE80FF91FE05922
S1130420FF4F80E0A0E0B2E194919C938F5F3196FE
S11304308530D1F70895E0E0F0E18EEA808381EA27
S113044080838AED808382E1808388EC808388EADC
S113045080838FE3808385ED808380E8808381E8D7
S1130460808380E5808389ED808381E2808380E2DC
S1130470808382E080838BED808380E380838DEAB8
S11304808083108284EA808386EA80838FEA808373
S11304900895806BE0E0F0E18083862F8F70808385
S11304A062956F7060616083089560E080E00E94EF
S11304B04902089560E00E94490280E890E0E0E08B
S11304C0F2E1108201970097E1F70895CF93C0E01D
S11304D08C2F0E945A02CF5FC830D1F7CF91089574
S11304E0CF93DF93CDB7DEB7FE013596619171915D
S11304F0AF0186E091E00E944F03DF91CF91089510
S11305005D9BFECF8CB908955D99FECF8CB10895A3
S11305108FE089B98AB188618AB964E872E080E8B9
S113052092E00E94BC02089597FB072E16F40094F3
S113053007D077FD09D00E94A80207FC05D03EF43D
S1130540909581959F4F0895709561957F4F08957B
S1130550AA1BBB1B51E107C0AA1FBB1FA617B707E5
S113056010F0A61BB70B881F991F5A95A9F7809501
S11305709095BC01CD0108950F931F93CF93DF9302
S1130580EC018B01009731F46115710519F480E0D9
S113059090E038C06EE070E081E090E00E942105B8
S11305A0FC010097A1F380E883830115110571F024
S11305B01387028781E8838380919101909192014E
S11305C0892B21F4F0939201E09391012097C9F0D3
S11305D0D187C087838182608383809193019091C6
S11305E09401892B71F4F0939401E0939301809129
S11305F0950190919601892B21F4F0939601E09353
S11306009501CF01DF91CF911F910F910895A0E043
S1130610B0E0EDE0F3E00C942107FE013596619122
S11306207191AF0180919301909194010E944F03C5
S1130630E2E00C943D0760919301709194010E9453
S1130640810608950F931F93CF93DF93E091930155
S1130650F0919401238121FF1BC0EC0100E010E024
S113066089916091930170919401DB011896ED9149
S1130670FC911997882331F00995892B89F30FEFA1
S11306801FEFEECF8AE00995892B11F4C80102C04F
S11306908FEF9FEFDF91CF911F910F910895ACE001
S11306A0B0E0E5E5F3E00C9411077C016B018A01ED
S11306B0FC0117821682838181FFBDC1CE010196A0
S11306C04C01F7019381F60193FD859193FF81918C
S11306D06F01882309F4ABC1853239F493FD859108
S11306E093FF81916F01853229F4B70190E00E9454
S11306F08106E7CF512C312C20E02032A0F48B323C
S113070069F030F4803259F0833269F420612CC0EE
S11307108D3239F0803339F4216026C022602460A0
S113072023C0286021C027FD27C030ED380F3A30A0
S113073078F426FF06C0FAE05F9E300D1124532E94
S113074013C08AE0389E300D1124332E20620CC071
S11307508E3221F426FD6BC1206406C08C3611F460
S1130760206802C0883641F4F60193FD859193FF19
S113077081916F018111C1CF982F9F7D9554933042
S113078028F40C5F1F4FFFE3F9830DC0833631F06B
S1130790833771F0833509F05BC022C0F801808192
S11307A089830E5F1F4F44244394512C540115C078
S11307B03801F2E06F0E711CF801A080B18026FFB1
S11307C003C0652D70E002C06FEF7FEFC5012C8779
S11307D00E9476062C0183012C852F77222E17C0C8
S11307E03801F2E06F0E711CF801A080B18026FF81
S11307F003C0652D70E002C06FEF7FEFC5012C8749
S11308000E9464062C012C852068222E830123FC7F
S11308101BC0832D90E048165906B0F4B70180E25E
S113082090E00E9481063A94F4CFF50127FC85916B
S113083027FE81915F01B70190E00E94810631108B
S11308403A94F1E04F1A51084114510471F7E5C08C
S1130850843611F0893639F5F80127FF07C0608125
S11308607181828193810C5F1F4F08C06081718107
S1130870882777FD8095982F0E5F1F4F2F76B22E15
S113088097FF09C090958095709561957F4F8F4F24
S11308909F4F2068B22E2AE030E0A4010E94B306E4
S11308A0A82EA81844C0853729F42F7EB22E2AE03A
S11308B030E025C0F22FF97FBF2E8F36C1F018F437
S11308C0883579F0B4C0803719F0883721F0AFC08B
S11308D02F2F2061B22EB4FE0DC08B2D8460B82E54
S11308E009C024FF0AC09F2F9660B92E06C028E0D5
S11308F030E005C020E130E002C020E132E0F80140
S1130900B7FE07C060817181828193810C5F1F4FA4
S113091006C06081718180E090E00E5F1F4FA401EA
S11309200E94B306A82EA818FB2DFF77BF2EB6FE93
S11309300BC02B2D2E7FA51450F4B4FE0AC0B2FCBC
S113094008C02B2D2E7E05C07A2C2B2D03C07A2CAB
S113095001C0752C24FF0DC0FE01EA0DF11D80813C
S1130960803311F4297E09C022FF06C07394739466
S113097004C0822F867809F0739423FD13C020FFEE
S113098006C05A2C731418F4530C5718732C731490
S113099068F4B70180E290E02C870E94810673948A
S11309A02C85F5CF731410F4371801C0312C24FFB3
S11309B012C0B70180E390E02C870E9481062C8549
S11309C022FF17C021FF03C088E590E002C088E73A
S11309D090E0B7010CC0822F867859F021FD02C047
S11309E080E201C08BE227FD8DE2B70190E00E9416
S11309F08106A51438F4B70180E390E00E948106D3
S1130A005A94F7CFAA94F401EA0DF11D8081B7013D
S1130A1090E00E948106A110F5CF332009F451CE55
S1130A20B70180E290E00E9481063A94F6CFF70184
S1130A308681978102C08FEF9FEF2C96E2E10C94A0
S1130A402D070F931F93CF93DF93869F8001879F7A
S1130A50100D969F100D1124C8010E943D05EC0154
S1130A60009729F0A80160E070E00E946F06CE01B3
S1130A70DF91CF911F910F910895CF93DF9382302F
S1130A80910510F482E090E0E0919901F0919A01CF
S1130A9020E030E0A0E0B0E0309739F140815181AE
S1130AA048175907B8F04817590771F482819381A0
S1130AB0109729F013969C938E9312972CC09093C1
S1130AC09A018093990127C02115310531F042170D
S1130AD0530718F0A901DB0101C0EF019A01BD0120
S1130AE0DF010280F381E02DD7CF21153105F9F024
S1130AF0281B390B2430310580F48A819B816115D0
S1130B00710521F0FB019383828304C090939A01C1
S1130B1080939901FE01329644C0FE01E20FF31F57
S1130B208193919322503109398328833AC02091CB
S1130B30970130919801232B41F4209102013091C7
S1130B400301309398012093970120910001309183
S1130B5001012115310541F42DB73EB7409104013F
S1130B6050910501241B350BE0919701F0919801F8
S1130B70E217F307A0F42E1B3F0B2817390778F070
S1130B80AC014E5F5F4F2417350748F04E0F5F1FCF
S1130B9050939801409397018193919302C0E0E0B0
S1130BA0F0E0CF01DF91CF910895CF93DF930097C9
S1130BB009F487C0FC01329713821282C091990113
S1130BC0D0919A01209781F420813181280F391F17
S1130BD080919701909198018217930779F5F0938A
S1130BE09801E09397016DC0DE0120E030E0AE177C
S1130BF0BF0750F412964D915C9113979D014115D6
S1130C00510509F1DA01F3CFB383A2834081518105
S1130C10840F951F8A179B0771F48D919C911197EE
S1130C20840F951F02969183808312968D919C91D7
S1130C301397938382832115310529F4F0939A0144
S1130C40E09399013EC0D9011396FC93EE93129759
S1130C504D915D91A40FB51FEA17FB0779F48081CC
S1130C609181840F951F0296D90111969C938E93BE
S1130C708281938113969C938E931297E0E0F0E027
S1130C808A819B81009719F0FE01EC01F9CFCE0116
S1130C90029628813981820F931F20919701309108
S1130CA098012817390769F4309729F410929A01AA
S1130CB01092990102C013821282D0939801C093BA
S1130CC09701DF91CF910895FC0105906150704028
S1130CD00110D8F7809590958E0F9F1F0895DC0121
S1130CE001C06D9341505040E0F70895FC016150FC
S1130CF0704001900110D8F7809590958E0F9F1F3A
S1130D0008950F931F93CF93DF93182F092FEB01AF
S1130D108B8181FD03C08FEF9FEF20C082FF10C045
S1130D204E815F812C813D81421753077CF4E88119
S1130D30F9819F012F5F3F4F39832883108306C0B9
S1130D40E885F985812F0995892B29F72E813F8123
S1130D502F5F3F4F3F832E83812F902FDF91CF91C1
S1130D601F910F910895FA01AA27283051F12031DB
S1130D7081F1E8946F936E7F6E5F7F4F8F4F9F4F2B
S1130D80AF4FB1E03ED0B4E03CD0670F781F891F6D
S1130D909A1FA11D680F791F8A1F911DA11D6A0F3B
S1130DA0711D811D911DA11D20D009F468943F91EE
S1130DB02AE0269F11243019305D3193DEF6CF01ED
S1130DC00895462F4770405D4193B3E00FD0C9F7B3
S1130DD0F6CF462F4F70405D4A3318F0495D31FD20
S1130DE04052419302D0A9F7EACFB4E0A695979573
S1130DF0879577956795BA95C9F700976105710549
S1130E0008959B01AC010A2E069457954795379592
S1130E102795BA95C9F7620F731F841F951FA01DEC
S1130E2008952F923F924F925F926F927F928F928A
S1130E309F92AF92BF92CF92DF92EF92FF920F9365
S1130E401F93CF93DF93CDB7DEB7CA1BDB0B0FB66F
S1130E50F894DEBF0FBECDBF09942A88398848882C
S1130E605F846E847D848C849B84AA84B984C884C2
S1130E70DF80EE80FD800C811B81AA81B981CE0FB9
S1130E80D11D0FB6F894DEBF0FBECDBFED0108959E
S1070E90F894FFCF00
S1130E9400009B0120000000000200000000050285
S1130EA4000000005561727420696E697469616C94
S1130EB4697A65640D0041444320696E697469610B
S1130EC46C697A65640D00476C6F62616C20696EAD
S1130ED4746572727570747320656E61626C656496
S1130EE40D004A6F79737469636B20696E69746960
S1130EF4616C697A65640D004F6C656420696E6980
S1130F047469616C697A65640D00583A2534692002
S10F0F14593A2534690D007465737400AB
S9030000FC
