:100000000C9438000C9455000C9455000C946B0023
:100010000C9455000C9455000C9455000C9455000C
:100020000C9455000C9455000C9455000C945500FC
:100030000C9455000C9455000C9455000C945500EC
:100040000C9455000C9455000C9455000C945500DC
:100050000C9455000C9455000C9455000C945500CC
:100060000C9455000C9455000C9455000C945500BC
:1000700011241FBECFEFD4E0DEBFCDBF11E0A0E062
:10008000B1E0ECE3FCE002C005900D92AA37B107A5
:10009000D9F721E0AAE7B1E001C01D92A938B20763
:1000A000E1F70E9477000C941C060C9400008BB7BB
:1000B00080628BBF86B78E7F86BF3098089580930D
:1000C000001481E080937E0180917E018111FCCF3C
:1000D0008091001408951F920F920FB60F92112471
:1000E00010927E010F900FBE0F901F901895B89A36
:1000F000B998BA9885B7806885BF0E945C018CE08A
:1001000090E00E94EF0186E091E00E94F6010E94DB
:10011000570088E191E00E94F601789489E291E02D
:100120000E94F6010E94C60084E491E00E94F6015C
:100130000E9412018AE591E00E94F60101E0CCE6FE
:10014000D1E0F12CB19B03C088B3802788BB88B372
:10015000802788BB0E94D9009F938F937F936F93D2
:10016000DF93CF930E94DB010F900F900F900F90C1
:100170000F900F901F2D812F0E9448011F5F183094
:10018000D1F780E090EF0197F1F7DCCF86E090E0C7
:100190000E945F0090E090937D0180937C0187E056
:1001A00090E00E945F0090E090937B0180937A0141
:1001B00008950F931F93CF93DF9386E090E00E9402
:1001C0005F00082F10E087E090E00E945F00282F7A
:1001D00030E080917C0190917D01081B190B64E651
:1001E000609FC001619F900D112440917A01509150
:1001F0007B01241B350B629FE001639FD00D11240E
:10020000EFE7F0E0BF010E9468018B01CE01BF0162
:100210000E9468019B01C901B801DF91CF911F9134
:100220000F910895E0E0F0E18EEA808381EA808317
:100230008AED808382E1808388EC808388EA8083F2
:100240008FE3808385ED808380E8808381E88083ED
:1002500080E5808389ED808381E2808380E28083F2
:1002600082E080838BED808380E380838DEA8083CE
:10027000108284EA808386EA80838FEA80830895EF
:10028000807BE0E0F0E180836F70608310820895EE
:1002900060E00E94400180E890E0E0E0F2E110823E
:1002A00001970097E1F708955D9BFECF8CB9089503
:1002B0005D99FECF8CB108958FE089B98AB18861CC
:1002C0008AB968E571E084E591E00E9490010895A3
:1002D00097FB072E16F4009407D077FD09D00E94F3
:1002E0007C0107FC05D03EF4909581959F4F0895C1
:1002F000709561957F4F0895AA1BBB1B51E107C004
:10030000AA1FBB1FA617B70710F0A61BB70B881FA5
:10031000991F5A95A9F780959095BC01CD01089534
:100320000F931F93CF93DF93EC018B01009731F470
:100330006115710519F480E090E038C06EE070E05E
:1003400081E090E00E94F503FC010097A1F380E8B2
:1003500083830115110571F01387028781E8838378
:1003600080917F0190918001892B21F4F09380018D
:10037000E0937F012097C9F0D187C0878381826095
:1003800083838091810190918201892B71F4F09394
:100390008201E09381018091830190918401892BF6
:1003A00021F4F0938401E0938301CF01DF91CF9199
:1003B0001F910F910895A0E0B0E0E1EEF1E00C9400
:1003C000F505FE01359661917191AF018091810132
:1003D000909182010E942302E2E00C941106609148
:1003E0008101709182010E94550508950F931F931A
:1003F000CF93DF93E0918101F0918201238121FF6E
:100400001BC0EC0100E010E08991609181017091C6
:100410008201DB011896ED91FC911997882331F048
:100420000995892B89F30FEF1FEFEECF8AE009952D
:10043000892B11F4C80102C08FEF9FEFDF91CF919C
:100440001F910F910895ACE0B0E0E9E2F2E00C9466
:10045000E5057C016B018A01FC011782168283810C
:1004600081FFBDC1CE0101964C01F7019381F601D8
:1004700093FD859193FF81916F01882309F4ABC1AE
:10048000853239F493FD859193FF81916F01853217
:1004900029F4B70190E00E945505E7CF512C312C8B
:1004A00020E02032A0F48B3269F030F4803259F031
:1004B000833269F420612CC08D3239F0803339F4F5
:1004C000216026C02260246023C0286021C027FD4F
:1004D00027C030ED380F3A3078F426FF06C0FAE036
:1004E0005F9E300D1124532E13C08AE0389E300DCC
:1004F0001124332E20620CC08E3221F426FD6BC1F4
:10050000206406C08C3611F4206802C0883641F49D
:10051000F60193FD859193FF81916F018111C1CF08
:10052000982F9F7D9554933028F40C5F1F4FFFE365
:10053000F9830DC0833631F0833771F0833509F0CC
:100540005BC022C0F801808189830E5F1F4F442465
:100550004394512C540115C03801F2E06F0E711C08
:10056000F801A080B18026FF03C0652D70E002C0B5
:100570006FEF7FEFC5012C870E944A052C01830194
:100580002C852F77222E17C03801F2E06F0E711CD8
:10059000F801A080B18026FF03C0652D70E002C085
:1005A0006FEF7FEFC5012C870E9438052C012C8549
:1005B0002068222E830123FC1BC0832D90E0481667
:1005C0005906B0F4B70180E290E00E9455053A94D4
:1005D000F4CFF50127FC859127FE81915F01B701DA
:1005E00090E00E94550531103A94F1E04F1A5108FD
:1005F0004114510471F7E5C0843611F0893639F59C
:10060000F80127FF07C060817181828193810C5FAF
:100610001F4F08C060817181882777FD8095982FD2
:100620000E5F1F4F2F76B22E97FF09C090958095D1
:10063000709561957F4F8F4F9F4F2068B22E2AE0B3
:1006400030E0A4010E948705A82EA81844C0853771
:1006500029F42F7EB22E2AE030E025C0F22FF97F58
:10066000BF2E8F36C1F018F4883579F0B4C08037CA
:1006700019F0883721F0AFC02F2F2061B22EB4FEC1
:100680000DC08B2D8460B82E09C024FF0AC09F2F97
:100690009660B92E06C028E030E005C020E130E0C9
:1006A00002C020E132E0F801B7FE07C0608171812D
:1006B000828193810C5F1F4F06C06081718180E051
:1006C00090E00E5F1F4FA4010E948705A82EA81876
:1006D000FB2DFF77BF2EB6FE0BC02B2D2E7FA51452
:1006E00050F4B4FE0AC0B2FC08C02B2D2E7E05C00B
:1006F0007A2C2B2D03C07A2C01C0752C24FF0DC041
:10070000FE01EA0DF11D8081803311F4297E09C0BC
:1007100022FF06C07394739404C0822F867809F078
:10072000739423FD13C020FF06C05A2C731418F4D1
:10073000530C5718732C731468F4B70180E290E0DF
:100740002C870E94550573942C85F5CF731410F4F3
:10075000371801C0312C24FF12C0B70180E390E0AC
:100760002C870E9455052C8522FF17C021FF03C04E
:1007700088E590E002C088E790E0B7010CC0822FC6
:10078000867859F021FD02C080E201C08BE227FD8E
:100790008DE2B70190E00E945505A51438F4B70129
:1007A00080E390E00E9455055A94F7CFAA94F40193
:1007B000EA0DF11D8081B70190E00E945505A1105E
:1007C000F5CF332009F451CEB70180E290E00E94CA
:1007D00055053A94F6CFF7018681978102C08FEFD5
:1007E0009FEF2C96E2E10C9401060F931F93CF9399
:1007F000DF93869F8001879F100D969F100D112417
:10080000C8010E941104EC01009729F0A80160E0E2
:1008100070E00E944305CE01DF91CF911F910F91AF
:100820000895CF93DF938230910510F482E090E039
:10083000E0918701F091880120E030E0A0E0B0E095
:10084000309739F14081518148175907B8F048175E
:10085000590771F482819381109729F013969C9324
:100860008E9312972CC0909388018093870127C0A4
:100870002115310531F04217530718F0A901DB01AA
:1008800001C0EF019A01BD01DF010280F381E02D7B
:10089000D7CF21153105F9F0281B390B243031054C
:1008A00080F48A819B816115710521F0FB0193839E
:1008B000828304C09093880180938701FE01329661
:1008C00044C0FE01E20FF31F81939193225031093E
:1008D000398328833AC02091850130918601232BEA
:1008E00041F420910201309103013093860120935D
:1008F000850120910001309101012115310541F45C
:100900002DB73EB74091040150910501241B350BD2
:10091000E0918501F0918601E217F307A0F42E1B08
:100920003F0B2817390778F0AC014E5F5F4F241753
:10093000350748F04E0F5F1F5093860140938501A5
:100940008193919302C0E0E0F0E0CF01DF91CF917D
:100950000895CF93DF93009709F487C0FC01329785
:1009600013821282C0918701D0918801209781F46F
:1009700020813181280F391F809185019091860156
:100980008217930779F5F0938601E09385016DC096
:10099000DE0120E030E0AE17BF0750F412964D9113
:1009A0005C9113979D014115510509F1DA01F3CFCF
:1009B000B383A28340815181840F951F8A179B07BF
:1009C00071F48D919C911197840F951F02969183DC
:1009D000808312968D919C91139793838283211526
:1009E000310529F4F0938801E09387013EC0D901D5
:1009F0001396FC93EE9312974D915D91A40FB51F42
:100A0000EA17FB0779F480819181840F951F029684
:100A1000D90111969C938E938281938113969C9316
:100A20008E931297E0E0F0E08A819B81009719F0A5
:100A3000FE01EC01F9CFCE01029628813981820FA7
:100A4000931F20918501309186012817390769F499
:100A5000309729F4109288011092870102C0138206
:100A60001282D0938601C0938501DF91CF910895C2
:100A7000FC010590615070400110D8F78095909569
:100A80008E0F9F1F0895DC0101C06D9341505040AF
:100A9000E0F70895FC016150704001900110D8F713
:100AA000809590958E0F9F1F08950F931F93CF935E
:100AB000DF93182F092FEB018B8181FD03C08FEF8E
:100AC0009FEF20C082FF10C04E815F812C813D814D
:100AD000421753077CF4E881F9819F012F5F3F4F54
:100AE00039832883108306C0E885F985812F09950D
:100AF000892B29F72E813F812F5F3F4F3F832E8324
:100B0000812F902FDF91CF911F910F910895FA01BE
:100B1000AA27283051F1203181F1E8946F936E7F3C
:100B20006E5F7F4F8F4F9F4FAF4FB1E03ED0B4E02D
:100B30003CD0670F781F891F9A1FA11D680F791F6E
:100B40008A1F911DA11D6A0F711D811D911DA11D7F
:100B500020D009F468943F912AE0269F112430198F
:100B6000305D3193DEF6CF010895462F4770405D2A
:100B70004193B3E00FD0C9F7F6CF462F4F70405DD9
:100B80004A3318F0495D31FD4052419302D0A9F734
:100B9000EACFB4E0A6959795879577956795BA952E
:100BA000C9F700976105710508959B01AC010A2EF4
:100BB00006945795479537952795BA95C9F7620FCB
:100BC000731F841F951FA01D08952F923F924F926F
:100BD0005F926F927F928F929F92AF92BF92CF92CD
:100BE000DF92EF92FF920F931F93CF93DF93CDB7D6
:100BF000DEB7CA1BDB0B0FB6F894DEBF0FBECDBF4E
:100C000009942A88398848885F846E847D848C841E
:100C10009B84AA84B984C884DF80EE80FD800C8127
:100C20001B81AA81B981CE0FD11D0FB6F894DEBF0A
:0C0C30000FBECDBFED010895F894FFCF7A
:100C3C000000890120005561727420696E69746925
:100C4C00616C697A65640D0041444320696E697476
:100C5C0069616C697A65640D00476C6F62616C2028
:100C6C00696E746572727570747320656E61626CF6
:100C7C0065640D004A6F79737469636B20696E69E2
:100C8C007469616C697A65640D004F6C65642069E8
:100C9C006E697469616C697A65640D00583A253423
:0A0CAC006920593A2534690D000053
:00000001FF
