:10000000C2C00000DFC00000DDC00000DBC0000097
:10001000D9C00000D7C00000D5C00000D3C0000088
:10002000D1C00000CFC00000CDC00000CBC0000098
:10003000C9C00000C7C00000C5C00000C3C00000A8
:10004000C1C00000BFC00000BDC00000BBC00000B8
:100050007EC30000B7C00000B5C00000B3C0000000
:10006000B1C00000AFC00000ADC00000ABC00000D8
:10007000A9C00000A7C00000A5C00000A3C00000E8
:10008000A1C000009FC000009DC000009BC00000F8
:1000900099C0000097C0000095C00000D7C10000C3
:1000A00091C000008FC000008DC000008BC0000018
:1000B00089C0000087C0000085C0000083C0000028
:1000C00081C000007FC000007DC000007BC0000038
:1000D00079C0000077C0000075C0000073C0000048
:1000E00071C00000410293029302930293029302B3
:1000F00093029302410293029302930293029302AA
:100100009302930243029302930293029302930297
:100110009302930293029302930293029302930237
:100120009302930243029302930293029302930277
:100130009302930293029302930293029302930217
:10014000930293028F02930293029302930293020B
:10015000930293026C02930293029302930293021E
:1001600093029302930293029302930293029302E7
:10017000930293026002930293029302930293020A
:10018000930293027E0211241FBECFEFD1E2DEBFA5
:10019000CDBF00E00CBF12E0A0E0B2E0EAECF0E17D
:1001A00000E00BBF02C007900D92A635B107D9F74A
:1001B00022E0A6E5B2E001C01D92A936B207E1F740
:1001C000C8D181C71DCFECE7F0E0808180648083D7
:1001D00080818F778083EAE7F0E080818768808381
:1001E0000895CF93C82FB1D04FEF60E680E694D04A
:1001F0004FEF60E680E790D04C2F60EE8FE08CD020
:100200002C98CF9108951C9BFECF8CE279D080FD75
:1002100005C08CE275D081FD03C0EDD280E6089563
:1002200080E70895DF92EF92FF920F931F93CF9391
:10023000DF93CDB7DEB72B970FB6F894DEBF0FBEB6
:10024000CDBF8C01FE0131968BE0DF011D928A95B6
:10025000E9F7D9DFD82E82E08D0D52D0F82E81E05B
:100260008D0D4ED0B8E08B9FC0011124F694F6940A
:10027000F694F694F6949C012F293A83298385E01D
:100280008D0D3ED08F708B838823A1F0F12C0F2E23
:10029000F6E0EF2EF02DED0C8E2D8F0D31D0E4E039
:1002A000F0E0EC0FFD1FEF0DF11D8083F3949B81B7
:1002B000F91690F320E6D21205C040E061E08CE22E
:1002C0002BD007C080E7D81204C040E062E08CE287
:1002D00023D08BE0FE013196D80101900D928A95D2
:1002E000E1F7C8012B960FB6F894DEBF0FBECDBF65
:1002F000DF91CF911F910F91FF90EF90DF900895C4
:10030000CF93C82F289883E036D08C2F34D080E04C
:1003100032D0289ACF9108951F93CF93DF93182F4F
:10032000D62FC42F289885E026D0812F24D08D2F5A
:1003300022D08C2F20D0289ADF91CF911F91089541
:10034000289880EC18D0289A08950ED0F9DF8EE016
:10035000D7DF982F907E903821F087E092E0AAC2F4
:1003600008958823A1F3089584B1876084B9239800
:1003700081E58CBD08958EBD0DB407FEFDCF8EB511
:100380000895E0ECF0E0908195FFFDCF8093C600EA
:100390000895E0ECF0E0808185FFFDCF8091C600FC
:1003A000089587E68093C400E1ECF0E080818861E5
:1003B0008083E2ECF0E080818660808369EC71E00C
:1003C00081EC91E01CC2089515D078940895CF93E4
:1003D000DF9300D0CDB7DEB79CE599831A828B837B
:1003E00063E0CE01019610D00F900F900F90DF9137
:1003F000CF9108958CE08093B8008FEF8093BB007D
:1004000084E08093BC000895ECEBF0E0208120FDB7
:10041000FDCF60935802FC0120812093590220FDFA
:100420000CC0623050F0DC011196EAE5F2E081E0A8
:100430009D9191938F5F8613FBCF1092570288EFA7
:100440008093060285EA8093BC0008951F920F9264
:100450000FB60F9211240BB60F922F933F938F93E9
:100460009F93AF93BF93EF93FF938091B90090E078
:10047000FC013897E135F10508F055C0EE58FF4F03
:10048000A0C110925602E091560280915802E817DE
:1004900070F481E08E0F80935602F0E0E75AFD4F32
:1004A00080818093BB0085E88093BC0043C080912D
:1004B000570281608093570284E98093BC003AC060
:1004C000E091560281E08E0F809356028091BB002E
:1004D000F0E0E75AFD4F80832091560230E0809192
:1004E000580290E001972817390724F485EC80938F
:1004F000BC0020C085E88093BC001CC08091BB007C
:10050000E0915602F0E0E75AFD4F80838091570258
:1005100081608093570284E98093BC000BC085EA18
:100520008093BC0007C08091B9008093060284E0EC
:100530008093BC00FF91EF91BF91AF919F918F91FC
:100540003F912F910F900BBE0F900FBE0F901F90F9
:100550001895CF93DF93CDB7DEB72B970FB6F894EE
:10056000DEBF0FBECDBF79D01CDF2DDE98D083D08B
:1005700080E037DE0F2EF8E4AF2EF2E0BF2EF02D34
:100580006894EE24E1F8FF24F3946894992493F896
:10059000CE01019647DE4C81CD808E810F8129816D
:1005A0003A812530310521F02D30310581F150C0DF
:1005B000D12CD42A10E0182BC60197D011236CF44B
:1005C00081E090E064D0C801112324F488279927A2
:1005D000801B910B880F61D00CC080E090E057D059
:1005E000C801112324F488279927801B910B880FB9
:1005F00054D01F930F93DF92CF92BF92AF9249D105
:100600000F900F900F900F900F900F9021C010E05F
:10061000182B8C2D90E0942B68D011236CF481E082
:1006200090E035D0C801992324F488279927801BAE
:10063000910B880F32D00CC080E090E028D0C80128
:10064000992324F488279927801B910B880F25D0A4
:10065000F7018081892580839BCFE1E0F1E08081F3
:10066000886080836B9A08958E988AE68A95F1F760
:1006700000C08E9A0895A8DE80B3886F80BB109268
:1006800008018F98F1DF8D9A8F9A8C9A0895892BA3
:1006900011F48B9A08958B98089599CE0895A0E946
:1006A000B0E08C918E7F8C938C9182608C93E1E989
:1006B000F0E08081886080838081806180838C917C
:1006C00080648C938C9180688C938081856080831A
:1006D00080818D7F808388E391E090939700809361
:1006E00096008EE18093980008958C599F4F880F53
:1006F000991F9C01220F331F220F331F220F331F1C
:10070000820F931F68EC70E049D0CB01459668508A
:1007100071096330710520F48EE18093980008958B
:100720009C01255131092331310518F4809398003B
:1007300008958EE180939800089580915D029091D4
:100740005E02059690935E0280935D0208951F926B
:100750000F920FB60F9211240BB60F922F933F9367
:100760004F935F936F937F938F939F93AF93BF93B9
:10077000EF93FF93E2DFFF91EF91BF91AF919F91D4
:100780008F917F916F915F914F913F912F910F903A
:100790000BBE0F900FBE0F901F90189597FB072E62
:1007A00016F4009406D077FD08D011D007FC05D0D0
:1007B0003EF4909581959F4F0895709561957F4F78
:1007C0000895EE0FFF1F0590F491E02D1994AA1BD8
:1007D000BB1B51E107C0AA1FBB1FA617B70710F02C
:1007E000A61BB70B881F991F5A95A9F7809590955E
:1007F000BC01CD01089581E090E0F89464C40F93AA
:100800001F93CF93DF93EC018B01009731F46115B7
:10081000710519F480E090E037C06EE070E081E08F
:1008200090E063D2FC010097A9F380E8838301156F
:10083000110571F01387028781E8838380915F023D
:1008400090916002892B21F4F0936002E0935F02A3
:100850002097C9F0D187C08783818260838380918C
:10086000610290916202892B71F4F0936202E0932D
:1008700061028091630290916402892B21F4F093CC
:100880006402E0936302CF01DF91CF911F910F913A
:100890000895CF93DF93CDB7DEB7FE013696619111
:1008A0007191AF01809161029091620230D0DF912D
:1008B000CF9108950F931F93CF93DF93E09161023F
:1008C000F0916202238121FF1BC0EC0100E010E0E7
:1008D00089916091610270916202DB011896ED913D
:1008E000FC911997882331F01995892B89F30FEF23
:1008F0001FEFEECF8AE01995892B11F4C80102C0D1
:100900008FEF9FEFDF91CF911F910F9108952F925D
:100910003F924F925F926F927F928F929F92AF928F
:10092000BF92CF92DF92EF92FF920F931F93CF93DC
:10093000DF93CDB7DEB72C970FB6F894DEBF0FBEAE
:10094000CDBF7C016B018A01FC0117821682838175
:1009500081FFB0C1CE0101964C01F7019381F601F0
:1009600093FD859193FF81916F01882309F49EC1C6
:10097000853239F493FD859193FF81916F01853222
:1009800021F4B70190E00FD3E8CF512C312C20E0B7
:100990002032A0F48B3269F030F4803259F0833287
:1009A00069F420612CC08D3239F0803339F4216034
:1009B00026C02260246023C0286021C027FD27C0F4
:1009C00030ED380F3A3078F426FF06C0FAE05F9E2B
:1009D000300D1124532E13C08AE0389E300D11249F
:1009E000332E20620CC08E3221F426FD5FC12064BC
:1009F00006C08C3611F4206802C0883641F4F60136
:100A000093FD859193FF81916F018111C1CF982F43
:100A10009F7D9554933028F40C5F1F4FFFE3F983BB
:100A20000DC0833631F0833771F0833509F057C03C
:100A300021C0F801808189830E5F1F4F44244394B5
:100A4000512C540114C03801F2E06F0E711CF801F2
:100A5000A080B18026FF03C0652D70E002C06FEF5B
:100A60007FEFC5012C8794D22C0183012C852F7731
:100A7000222E16C03801F2E06F0E711CF801A08022
:100A8000B18026FF03C0652D70E002C06FEF7FEFDD
:100A9000C5012C876BD22C012C852068222E830166
:100AA00023FC19C0832D90E048165906A0F4B70125
:100AB00080E290E078D23A94F5CFF50127FC859159
:100AC00027FE81915F01B70190E06DD231103A9419
:100AD000F1E04F1A51084114510479F7DEC0843611
:100AE00011F0893631F5F80127FF07C06081718167
:100AF000828193810C5F1F4F08C0608171818827BC
:100B000077FD8095982F0E5F1F4F2F76B22E97FF9F
:100B100009C090958095709561957F4F8F4F9F4F3D
:100B20002068B22E2AE030E0A4016FD2A82EA818C7
:100B300043C0853729F42F7EB22E2AE030E025C04D
:100B4000F22FF97FBF2E8F36C1F018F4883579F077
:100B5000ADC0803719F0883721F0A8C02F2F206151
:100B6000B22EB4FE0DC08B2D8460B82E09C024FFB8
:100B70000AC09F2F9660B92E06C028E030E005C05D
:100B800020E130E002C020E132E0F801B7FE07C00A
:100B900060817181828193810C5F1F4F06C06081EB
:100BA000718180E090E00E5F1F4FA4012ED2A82E2D
:100BB000A818FB2DFF77BF2EB6FE0BC02B2D2E7F66
:100BC000A51450F4B4FE0AC0B2FC08C02B2D2E7E32
:100BD00005C07A2C2B2D03C07A2C01C0752C24FF64
:100BE0000DC0FE01EA0DF11D8081803311F4297ED4
:100BF00009C022FF06C07394739404C0822F8678C4
:100C000009F0739423FD12C020FF06C05A2C731400
:100C100018F4530C5718732C731460F4B70180E266
:100C200090E02C87C0D173942C85F6CF731410F408
:100C3000371801C0312C24FF11C0B70180E390E0C8
:100C40002C87B1D12C8522FF16C021FF03C088E577
:100C500090E002C088E790E0B7010CC0822F867850
:100C600051F021FD02C080E201C08BE227FD8DE240
:100C7000B70190E098D1A51430F4B70180E390E07B
:100C800092D15A94F8CFAA94F401EA0DF11D808113
:100C9000B70190E088D1A110F6CF332009F45DCEE2
:100CA000B70180E290E07FD13A94F7CFF7018681D7
:100CB000978102C08FEF9FEF2C960FB6F894DEBF9E
:100CC0000FBECDBFDF91CF911F910F91FF90EF909D
:100CD000DF90CF90BF90AF909F908F907F906F905C
:100CE0005F904F903F902F9008950F931F93CF9355
:100CF000DF93869F8001879F100D969F100D112412
:100D0000C8010DD0EC01009721F0A80160E070E06F
:100D100038D1CE01DF91CF911F910F910895CF93DC
:100D2000DF938230910510F482E090E0E091670259
:100D3000F091680220E030E0A0E0B0E0309739F1B7
:100D40004081518148175907B8F04817590771F485
:100D500082819381109729F013969C938E9312971A
:100D60002CC0909368028093670227C0211531053B
:100D700031F04217530718F0A901DB0101C0EF0160
:100D80009A01BD01DF010280F381E02DD7CF21154B
:100D90003105F9F0281B390B2430310580F48A81A4
:100DA0009B816115710521F0FB019383828304C04F
:100DB0009093680280936702FE01329644C0FE0160
:100DC000E20FF31F819391932250310939832883D5
:100DD0003AC02091650230916602232B41F42091A4
:100DE0000202309103023093660220936502209143
:100DF0000002309101022115310541F42DB73EB7B3
:100E00004091040250910502241B350BE0916502CC
:100E1000F0916602E217F307A0F42E1B3F0B281790
:100E2000390778F0AC014E5F5F4F2417350748F063
:100E30004E0F5F1F5093660240936502819391931A
:100E400002C0E0E0F0E0CF01DF91CF910895CF93B1
:100E5000DF93009709F487C0FC0132971382128256
:100E6000C0916702D0916802209781F4208131817E
:100E7000280F391F809165029091660282179307AF
:100E800079F5F0936602E09365026DC0DE0120E023
:100E900030E0AE17BF0750F412964D915C91139756
:100EA0009D014115510509F1DA01F3CFB383A28306
:100EB00040815181840F951F8A179B0771F48D9192
:100EC0009C911197840F951F0296918380831296AF
:100ED0008D919C911397938382832115310529F479
:100EE000F0936802E09367023EC0D9011396FC9329
:100EF000EE9312974D915D91A40FB51FEA17FB0772
:100F000079F480819181840F951F0296D901119601
:100F10009C938E938281938113969C938E931297C8
:100F2000E0E0F0E08A819B81009719F0FE01EC017E
:100F3000F9CFCE01029628813981820F931F20912B
:100F40006502309166022817390769F4309729F451
:100F5000109268021092670202C013821282D0932C
:100F60006602C0936502DF91CF910895FC01059060
:100F7000615070400110D8F7809590958E0F9F1F9B
:100F80000895DC0101C06D9341505040E0F7089591
:100F9000FC016150704001900110D8F78095909548
:100FA0008E0F9F1F08950F931F93CF93DF93182FDA
:100FB000092FEB018B8181FD03C08FEF9FEF20C0D4
:100FC00082FF10C04E815F812C813D814217530703
:100FD0007CF4E881F9819F012F5F3F4F398328839B
:100FE000108306C0E885F985812F1995892B29F78B
:100FF0002E813F812F5F3F4F3F832E83812F902F84
:10100000DF91CF911F910F910895FA01AA272830FF
:1010100051F1203181F1E8946F936E7F6E5F7F4FC5
:101020008F4F9F4FAF4FB1E03ED0B4E03CD0670F41
:10103000781F891F9A1FA11D680F791F8A1F911D94
:10104000A11D6A0F711D811D911DA11D20D009F4E4
:1010500068943F912AE0269F11243019305D319326
:10106000DEF6CF010895462F4770405D4193B3E00F
:101070000FD0C9F7F6CF462F4F70405D4A3318F0B6
:10108000495D31FD4052419302D0A9F7EACFB4E067
:10109000A6959795879577956795BA95C9F700971F
:1010A0006105710508959B01AC010A2E06945795C0
:1010B000479537952795BA95C9F7620F731F841F17
:0A10C000951FA01D0895F894FFCFBE
:1010CA00000069022000F84552524F522120455231
:1010DA00524F5221204D4350323531352069732009
:1010EA004E4F5420696E20636F6E66696775726130
:1010FA0074696F6E206D6F64652061667465722015
:10110A007265736574210D00583A25346920593A7D
:06111A002534690D000000
:00000001FF
