S017000041727564696E6F4D656761323536302E73726563F4
S113000071C000008EC000008CC000008AC00000D7
S113001088C0000086C0000084C0000082C00000C8
S113002080C000007EC000007CC000007AC00000D8
S113003078C0000076C0000074C0000072C00000E8
S113004070C000006EC000006CC000006AC00000F8
S1130050DAC2000066C0000064C0000062C0000094
S113006060C000005EC000005CC000005AC0000018
S113007058C0000056C0000054C0000052C0000028
S113008050C000004EC000004CC000004AC0000038
S113009048C0000046C0000044C0000042C0000048
S11300A040C000003EC000003CC000003AC0000058
S11300B038C0000036C0000034C0000032C0000068
S11300C030C000002EC000002CC000002AC0000078
S11300D028C0000026C0000024C0000022C0000088
S11300E020C0000011241FBECFEFD1E2DEBFCDBF80
S11300F000E00CBF12E0A0E0B2E0EEE6FFE000E0BA
S11301000BBF02C007900D92A63BB107D9F722E0BE
S1130110A6EBB2E001C01D92A23CB207E1F72ED0DB
S113012024C76ECFEAE7F0E0808187688083ECE73C
S1130130F0E080818064808380818F77808308955C
S1130140ECE7F0E090818370982B9083EAE7F0E08D
S113015080818064808380818670E9F38091780057
S11301602091790090E0922B089580E0E9DF21E06E
S11301708538934008F420E0822F0895CF93DF93CD
S1130180CDB7DEB72B970FB6F894DEBF0FBECDBF49
S11301909ED1C8DF80E060D06B9AACD181E2CDD132
S11301A0279A78940F2EF6E08F2EF2E09F2EF02DF2
S11301B00F2EF5E1AF2EF2E0BF2EF02D0F2EF2E25E
S11301C0CF2EF2E0DF2EF02D0F2EFDE26F2EF2E0A7
S11301D07F2EF02DCE01019668D00C8110E0102FF7
S11301E000278D81082BEE80F12CFE2CEE248F81CC
S11301F0E82AEFD1BADF8823E9F3FAD1DBD19F9360
S11302008F939F928F9297D2FF92EF921F930F93A7
S1130210BF92AF9290D2C80193D1DF92CF928BD28A
S1130220E980FA800B811C812D813E814F815885A4
S113023069857A858B8593D080E082DF9F938F9345
S11302407F926F9278D285B1805885B90FB6F894B1
S1130250DEBF0FBECDBFBECFCF93C82F0CD14FEFA3
S113026060E680E6EFD04FEF60E680E7EBD04C2FFE
S113027060EE8FE0E7D05298CF9108951C9BFECF9B
S11302808CE2D4D080FF06C040E061E08CE2DAD09A
S113029080E608958CE2CAD081FF06C040E062E0A7
S11302A08CE2D0D080E708950895EF92FF920F93E7
S11302B01F93CF93DF93CDB7DEB72B970FB6F89488
S11302C0DEBF0FBECDBF8C01FE0131968BE0DF0196
S11302D01D928A95E9F7D2DFE82E82E08E0DA6D032
S11302E0F82E81E08E0DA2D0B8E08B9FC0011124BE
S11302F0F694F694F694F694F6949C012F293A8396
S1130300298385E08E0D92D08F708B83882389F0AA
S1130310F12C26E0E20E8E2D8F0D88D0E4E0F0E083
S1130320EC0FFD1FEF0DF11D8083F3949B81F916F3
S113033090F38BE0FE013196D80101900D928A95DD
S1130340E1F7C8012B960FB6F894DEBF0FBECDBF00
S1130350DF91CF911F910F91FF90EF900895CF926D
S1130360DF92EF92FF920F931F93CF93DF93CDB75A
S1130370DEB72B970FB6F894DEBF0FBECDBFE98270
S1130380FA82C02E0B831C832D833E834F835887B0
S113039069877A878B871F920F938A818F938981CC
S11303A08F938EE392E09F938F93C5D10F900F901C
S11303B00F900F900F900F90002331F18C811F92BA
S11303C08F9384E692E09F938F93B5D10F900F9013
S11303D00F900F9081E08017B8F47E01E5E0EE0EF7
S11303E0F11CDD24D39402E612E0F70181917F0130
S11303F01F928F931F930F939ED1D3940F900F90BE
S11304000F900F90DC10F1CF87E692E0A5D12B96E8
S11304100FB6F894DEBF0FBECDBFDF91CF911F9111
S11304200F91FF90EF90DF90CF900895CF93C82F56
S1130430289883E036D08C2F34D080E032D0289AAC
S1130440CF9108951F93CF93DF93182FD62FC42FE6
S1130450289885E026D0812F24D08D2F22D08C2F70
S113046020D0289ADF91CF911F910895289880EC8D
S113047018D0289A08950ED0F9DF8EE0D7DF982F90
S1130480907E903821F08AE692E066D1F6CF8823F8
S1130490A1F3089584B1876084B9239881E58CBD64
S11304A008958EBD0DB407FEFDCF8EB50895E0EC22
S11304B0F0E0908195FFFDCF8093C6000895E0ECB5
S11304C0F0E080818823ECF38091C600089587E6EC
S11304D08093C400E1ECF0E0808188618083E2ECE9
S11304E0F0E08081826080836FE572E087E592E0CE
S11304F0D8C00895A0E9B0E08C918E7F8C938C9144
S113050082608C93E1E9F0E080818860808380815F
S1130510806180838C9180648C938C9180688C93AF
S113052080818560808380818D7F808388E391E0F2
S1130530909397008093960008958093980008956F
S11305400F931F93CF93DF938C599F4F880F991F5D
S11305509C01220F331F220F331F220F331F820FE0
S1130560931F68EC70E076D08B01EB016596DF9306
S1130570CF938BEA92E09F938F93DDD008501109BB
S11305800F900F900F900F900330110520F48EE11F
S1130590809398000AC0CE014597439718F4C093FE
S11305A0980003C08EE180939800DF91CF911F9152
S11305B00F9108958091B6029091B70208958091A9
S11305C0B6029091B70201969093B7028093B60257
S11305D008951092B7021092B602E1E8F0E080812B
S11305E081608083EFE6F0E08081816080830895FC
S11305F0E1E8F0E080818E7F8083EFE6F0E08081A7
S11306008E7F808308951F920F920FB60F9211244C
S11306100BB60F922F933F934F935F936F937F93F8
S11306208F939F93AF93BF93EF93FF93C8DFFF9193
S1130630EF91BF91AF919F918F917F916F915F9156
S11306404F913F912F910F900BBE0F900FBE0F90C3
S11306501F90189597FB072E16F4009406D077FD8B
S113066008D00BD007FC05D03EF4909581959F4FA0
S11306700895709561957F4F0895AA1BBB1B51E1A6
S113068007C0AA1FBB1FA617B70710F0A61BB70BFE
S1130690881F991F5A95A9F780959095BC01CD01A3
S11306A008950F931F93CF93DF93EC018B01009771
S11306B031F46115710519F480E090E037C06EE003
S11306C070E081E090E063D2FC010097A9F380E838
S11306D083830115110571F01387028781E88383F1
S11306E08091B8029091B902892B21F4F093B90258
S11306F0E093B8022097C9F0D187C08783818260D4
S113070083838091BA029091BB02892B71F4F09398
S1130710BB02E093BA028091BC029091BD02892B86
S113072021F4F093BD02E093BC02CF01DF91CF919D
S11307301F910F910895CF93DF93CDB7DEB7FE01DC
S1130740369661917191AF018091BA029091BB028A
S113075030D0DF91CF9108950F931F93CF93DF9300
S1130760E091BA02F091BB02238121FF1BC0EC018E
S113077000E010E089916091BA027091BB02DB0144
S11307801896ED91FC911997882331F01995892BCE
S113079089F30FEF1FEFEECF8AE01995892B11F43F
S11307A0C80102C08FEF9FEFDF91CF911F910F918E
S11307B008952F923F924F925F926F927F928F9201
S11307C09F92AF92BF92CF92DF92EF92FF920F93DC
S11307D01F93CF93DF93CDB7DEB72C970FB6F89462
S11307E0DEBF0FBECDBF7C016B018A01FC01178205
S11307F01682838181FFB0C1CE0101964C01F701BD
S11308009381F60193FD859193FF81916F01882374
S113081009F49EC1853239F493FD859193FF81914A
S11308206F01853221F4B70190E00FD3E8CF512C4A
S1130830312C20E02032A0F48B3269F030F4803285
S113084059F0833269F420612CC08D3239F0803341
S113085039F4216026C02260246023C0286021C0AE
S113086027FD27C030ED380F3A3078F426FF06C054
S1130870FAE05F9E300D1124532E13C08AE0389E97
S1130880300D1124332E20620CC08E3221F426FD4B
S11308905FC1206406C08C3611F4206802C088361B
S11308A041F4F60193FD859193FF81916F018111CC
S11308B0C1CF982F9F7D9554933028F40C5F1F4F20
S11308C0FFE3F9830DC0833631F0833771F083354C
S11308D009F057C021C0F801808189830E5F1F4F42
S11308E044244394512C540114C03801F2E06F0E97
S11308F0711CF801A080B18026FF03C0652D70E053
S113090002C06FEF7FEFC5012C8794D22C018301C5
S11309102C852F77222E16C03801F2E06F0E711C41
S1130920F801A080B18026FF03C0652D70E002C0ED
S11309306FEF7FEFC5012C876BD22C012C852068CB
S1130940222E830123FC19C0832D90E048165906FA
S1130950A0F4B70180E290E078D23A94F5CFF501A3
S113096027FC859127FE81915F01B70190E06DD24C
S113097031103A94F1E04F1A51084114510479F7B7
S1130980DEC0843611F0893631F5F80127FF07C03F
S113099060817181828193810C5F1F4F08C06081E7
S11309A07181882777FD8095982F0E5F1F4F2F76D2
S11309B0B22E97FF09C090958095709561957F4FF1
S11309C08F4F9F4F2068B22E2AE030E0A4016FD2EF
S11309D0A82EA81843C0853729F42F7EB22E2AE00A
S11309E030E025C0F22FF97FBF2E8F36C1F018F406
S11309F0883579F0ADC0803719F0883721F0A8C068
S1130A002F2F2061B22EB4FE0DC08B2D8460B82E22
S1130A1009C024FF0AC09F2F9660B92E06C028E0A3
S1130A2030E005C020E130E002C020E132E0F8010E
S1130A30B7FE07C060817181828193810C5F1F4F73
S1130A4006C06081718180E090E00E5F1F4FA401B9
S1130A502ED2A82EA818FB2DFF77BF2EB6FE0BC0F2
S1130A602B2D2E7FA51450F4B4FE0AC0B2FC08C08E
S1130A702B2D2E7E05C07A2C2B2D03C07A2C01C081
S1130A80752C24FF0DC0FE01EA0DF11D8081803319
S1130A9011F4297E09C022FF06C07394739404C024
S1130AA0822F867809F0739423FD12C020FF06C0BC
S1130AB05A2C731418F4530C5718732C731460F4D1
S1130AC0B70180E290E02C87C0D173942C85F6CFD7
S1130AD0731410F4371801C0312C24FF11C0B7016E
S1130AE080E390E02C87B1D12C8522FF16C021FF32
S1130AF003C088E590E002C088E790E0B7010CC02D
S1130B00822F867851F021FD02C080E201C08BE281
S1130B1027FD8DE2B70190E098D1A51430F4B70118
S1130B2080E390E092D15A94F8CFAA94F401EA0DAC
S1130B30F11D8081B70190E088D1A110F6CF332058
S1130B4009F45DCEB70180E290E07FD13A94F7CF0B
S1130B50F7018681978102C08FEF9FEF2C960FB625
S1130B60F894DEBF0FBECDBFDF91CF911F910F91DF
S1130B70FF90EF90DF90CF90BF90AF909F908F90B9
S1130B807F906F905F904F903F902F9008950F93B8
S1130B901F93CF93DF93869F8001879F100D969FAD
S1130BA0100D1124C8010DD0EC01009721F0A8010B
S1130BB060E070E038D1CE01DF91CF911F910F91A9
S1130BC00895CF93DF938230910510F482E090E092
S1130BD0E091C002F091C10220E030E0A0E0B0E07A
S1130BE0309739F14081518148175907B8F04817B7
S1130BF0590771F482819381109729F013969C937D
S1130C008E9312972CC09093C1028093C00227C088
S1130C102115310531F04217530718F0A901DB0102
S1130C2001C0EF019A01BD01DF010280F381E02DD3
S1130C30D7CF21153105F9F0281B390B24303105A4
S1130C4080F48A819B816115710521F0FB019383F6
S1130C50828304C09093C1028093C002FE01329645
S1130C6044C0FE01E20FF31F819391932250310996
S1130C70398328833AC02091BE023091BF02232BCE
S1130C8041F420910202309103023093BF02209379
S1130C90BE0220910002309101022115310541F478
S1130CA02DB73EB74091040250910502241B350B29
S1130CB0E091BE02F091BF02E217F307A0F42E1BED
S1130CC03F0B2817390778F0AC014E5F5F4F2417AC
S1130CD0350748F04E0F5F1F5093BF024093BE028A
S1130CE08193919302C0E0E0F0E0CF01DF91CF91D6
S1130CF00895CF93DF93009709F487C0FC013297DE
S1130D0013821282C091C002D091C102209781F453
S1130D1020813181280F391F8091BE029091BF023A
S1130D208217930779F5F093BF02E093BE026DC07A
S1130D30DE0120E030E0AE17BF0750F412964D916B
S1130D405C9113979D014115510509F1DA01F3CF27
S1130D50B383A28340815181840F951F8A179B0717
S1130D6071F48D919C911197840F951F0296918334
S1130D70808312968D919C9113979383828321157E
S1130D80310529F4F093C102E093C0023EC0D901B9
S1130D901396FC93EE9312974D915D91A40FB51F9A
S1130DA0EA17FB0779F480819181840F951F0296DD
S1130DB0D90111969C938E938281938113969C936F
S1130DC08E931297E0E0F0E08A819B81009719F0FE
S1130DD0FE01EC01F9CFCE01029628813981820F00
S1130DE0931F2091BE023091BF022817390769F47E
S1130DF0309729F41092C1021092C00202C01382EB
S1130E001282D093BF02C093BE02DF91CF910895A6
S1130E10FC010590615070400110D8F780959095C1
S1130E208E0F9F1F0895DC0101C06D934150504007
S1130E30E0F70895FC016150704001900110D8F76B
S1130E40809590958E0F9F1F08950F931F93CF93B6
S1130E50DF93182F092FEB018B8181FD03C08FEFE6
S1130E609FEF20C082FF10C04E815F812C813D81A5
S1130E70421753077CF4E881F9819F012F5F3F4FAC
S1130E8039832883108306C0E885F985812F199555
S1130E90892B29F72E813F812F5F3F4F3F832E837C
S1130EA0812F902FDF91CF911F910F910895FA0117
S1130EB0AA27283051F1203181F1E8946F936E7F95
S1130EC06E5F7F4F8F4F9F4FAF4FB1E03ED0B4E086
S1130ED03CD0670F781F891F9A1FA11D680F791FC7
S1130EE08A1F911DA11D6A0F711D811D911DA11DD8
S1130EF020D009F468943F912AE0269F11243019E8
S1130F00305D3193DEF6CF010895462F4770405D82
S1130F104193B3E00FD0C9F7F6CF462F4F70405D31
S1130F204A3318F0495D31FD4052419302D0A9F78C
S1130F30EACFB4E0A6959795879577956795BA9586
S1130F40C9F700976105710508959B01AC010A2E4C
S1130F5006945795479537952795BA95C9F7620F23
S1110F60731F841F951FA01D0895F894FFCFE2
S1130F6E0000C202200073636F72652069733A2019
S1130F7E2534690A00583A25346920593A253469CA
S1130F8E0D0072656365697665643A200061646379
S1130F9E2076616C75653A20253469200A006361F8
S1130FAE6E5F6D6573736167655F742869643A2556
S1130FBE642C206C656E3A25642C20646174613A4D
S1130FCE7B002C202564007D29004552524F52216E
S1130FDE204552524F5221204D4350323531352047
S1130FEE6973204E4F5420696E20636F6E66696775
S1130FFE75726174696F6E206D6F646520616674BD
S113100E6572207265736574210D0076616C3A20E9
S109101E253469200A00DC
S9030000FC
