S017000041727564696E6F4D656761323536302E73726563F4
S1130000C2C00000DFC00000DDC00000DBC0000093
S1130010D9C00000D7C00000D5C00000D3C0000084
S1130020D1C00000CFC00000CDC00000CBC0000094
S1130030C9C00000C7C00000C5C00000C3C00000A4
S1130040C1C00000BFC00000BDC00000BBC00000B4
S11300503DC30000B7C00000B5C00000B3C000003D
S1130060B1C00000AFC00000ADC00000ABC00000D4
S1130070A9C00000A7C00000A5C00000A3C00000E4
S1130080A1C000009FC000009DC000009BC00000F4
S113009099C0000097C0000095C0000019C200007C
S11300A091C000008FC000008DC000008BC0000014
S11300B089C0000087C0000085C0000083C0000024
S11300C081C000007FC000007DC000007BC0000034
S11300D079C0000077C0000075C0000073C0000044
S11300E071C000008302D502D502D502D502D50223
S11300F0D502D5028302D502D502D502D502D50296
S1130100D502D5028502D502D502D502D502D50283
S1130110D502D502D502D502D502D502D502D50223
S1130120D502D5028502D502D502D502D502D50263
S1130130D502D502D502D502D502D502D502D50203
S1130140D502D502D102D502D502D502D502D502F7
S1130150D502D502AE02D502D502D502D502D5020A
S1130160D502D502D502D502D502D502D502D502D3
S1130170D502D502A202D502D502D502D502D502F6
S1130180D502D502C00211241FBECFEFD1E2DEBFDB
S1130190CDBF00E00CBF12E0A0E0B2E0E6E7F0E182
S11301A000E00BBF02C007900D92A635B107D9F746
S11301B022E0A6E5B2E001C01D92A936B207E1F73C
S11301C010D057C71DCFEAE7F0E0808187688083AD
S11301D0ECE7F0E080818064808380818F77808386
S11301E00895CF93DF93CDB7DEB72B970FB6F8946E
S11301F0DEBF0FBECDBFFFD1E6DF10D26B9AE1E0C8
S1130200F1E0808188608083279A81E22AD28CD2AF
S113021080E056D00F2EF7E0AF2EF2E0BF2EF02D87
S113022002E011E06894992493F8CE0101965ED01F
S113023089819A810597B1F5CC80D12CDC2CCC2412
S11302408D81C82AEE80F12CFE2CEE248F81E82AC1
S1130250C6010AD2FF206CF481E090E071D2C7019C
S1130260FF2024F4882799278E199F09880F6ED2BE
S11302700CC080E090E064D2C701FF2024F48827FA
S113028099278E199F09880F61D2FF92EF92DF920E
S1130290CF92BF92AF92D3D20F900F900F900F9046
S11302A00F900F90F801808189258083FFEF2DE363
S11302B089E4F15020408040E1F700C00000B5CF50
S11302C0CF93C82FBDD04FEF60E680E6A0D04FEFAC
S11302D060E680E79CD040E064E080E698D04C2F54
S11302E060EE8FE094D02498CF9108959F92AF92BE
S11302F0BF92CF92DF92EF92FF920F931F93CF930F
S1130300DF93CDB7DEB72B970FB6F894DEBF0FBEE1
S1130310CDBF7C01FE0131968BE0DF011D928A95F1
S1130320E9F78CE268D080FF2CC082E664D0182FF5
S113033081E661D0B8E08B9FC00111241295169517
S113034017706C01C12A85E656D08F70982EA1F0E3
S11303508E010C5F1F4F0F2EF6E6AF2EF02DA80E68
S11303600F2EF6E6BF2EF02D8B2D45D0F80181938C
S11303708F01B394BA10F8CF40E061E08CE247D02B
S113038006C0912C6894CC24C1F8DD24D3F8DA8219
S1130390C9829B828BE0FE013196D70101900D92B8
S11303A08A95E1F7C7012B960FB6F894DEBF0FBE0E
S11303B0CDBFDF91CF911F910F91FF90EF90DF9010
S11303C0CF90BF90AF909F90089556D078940895A1
S11303D0CF93DF9300D0CDB7DEB79CE599831A8223
S11303E08B8363E0CE01019651D00F900F900F9054
S11303F0DF91CF910895CF93C82F289883E036D00A
S11304008C2F34D080E032D0289ACF9108951F9356
S1130410CF93DF93182FD62FC42F289885E026D0AA
S1130420812F24D08D2F22D08C2F20D0289ADF9199
S1130430CF911F910895289880EC18D0289A089598
S11304400ED0F9DF8EE0D7DF982F907E903821F020
S113045084E192E005D2F6CF8823A1F3089584B114
S1130460876084B9239881E58CBD08958EBD0DB451
S113047007FEFDCF8EB508958CE08093B8008FEF12
S11304808093BB0084E08093BC000895ECEBF0E023
S1130490208120FDFDCF60935802FC012081209330
S11304A0590220FD0CC0623050F0DC011196EAE5DF
S11304B0F2E081E09D9191938F5F8613FBCF1092C0
S11304C0570288EF8093060285EA8093BC00089562
S11304D01F920F920FB60F9211240BB60F922F9307
S11304E03F938F939F93AF93BF93EF93FF93809129
S11304F0B90090E0FC013897E135F10508F055C0EA
S1130500EE58FF4F38C110925602E0915602809186
S11305105802E81770F481E08E0F80935602F0E0E1
S1130520E75AFD4F80818093BB0085E88093BC002F
S113053043C08091570281608093570284E980937D
S1130540BC003AC0E091560281E08E0F80935602BF
S11305508091BB00F0E0E75AFD4F80832091560262
S113056030E08091580290E001972817390724F46D
S113057085EC8093BC0020C085E88093BC001CC03F
S11305808091BB00E0915602F0E0E75AFD4F808372
S11305908091570281608093570284E98093BC0064
S11305A00BC085EA8093BC0007C08091B90080939A
S11305B0060284E08093BC00FF91EF91BF91AF915C
S11305C09F918F913F912F910F900BBE0F900FBE73
S11305D00F901F901895E0ECF0E0908195FFFDCF0F
S11305E08093C6000895E0ECF0E080818823ECF36A
S11305F08091C600089587E68093C400E1ECF0E0A2
S1130600808188618083E2ECF0E080818260808375
S113061063EF72E08BEE92E0C8C00895A0E9B0E009
S11306208C918E7F8C938C9182608C93E1E9F0E0C5
S11306308081886080838081806180838C918064E4
S11306408C938C9180688C93808185608083808179
S11306508D7F808388E391E0909397008093960048
S113066008958093980008958C599F4F880F991F7F
S11306709C01220F331F220F331F220F331F820FBF
S1130680931F68EC70E064D0CB0145966850710903
S11306906330710520F48EE18093980008959C01E5
S11306A0255131092331310518F4809398000895B8
S11306B08EE180939800089580915D0290915E028E
S11306C0059690935E0280935D0208951F920F92A7
S11306D00FB60F9211240BB60F922F933F934F93A3
S11306E05F936F937F938F939F93AF93BF93EF9396
S11306F0FF93E2DFFF91EF91BF91AF919F918F91B3
S11307007F916F915F914F913F912F910F900BBE0D
S11307100F900FBE0F901F9018958E9886E08A95C3
S1130720F1F700C08E9A089550DE80B3886F80BBC5
S1130730109207018F98F1DF8D9A8F9A8C9A089501
S1130740892B11F48B9A08958B98089541CE0895BE
S113075097FB072E16F4009406D077FD08D011D02D
S113076007FC05D03EF4909581959F4F08957095B0
S113077061957F4F0895EE0FFF1F0590F491E02DD2
S11307801994AA1BBB1B51E107C0AA1FBB1FA617C4
S1130790B70710F0A61BB70B881F991F5A95A9F726
S11307A080959095BC01CD0108950F931F93CF932D
S11307B0DF93EC018B01009731F46115710519F495
S11307C080E090E037C06EE070E081E090E063D2BA
S11307D0FC010097A9F380E883830115110571F0EA
S11307E01387028781E8838380915F02909160027E
S11307F0892B21F4F0936002E0935F022097C9F003
S1130800D187C087838182608383809161029091C4
S11308106202892B71F4F0936202E0936102809189
S1130820630290916402892B21F4F0936402E093B3
S11308306302CF01DF91CF911F910F910895CF9360
S1130840DF93CDB7DEB7FE01369661917191AF01AA
S1130850809161029091620230D0DF91CF9108952E
S11308600F931F93CF93DF93E0916102F0916202A3
S1130870238121FF1BC0EC0100E010E0899160910D
S1130880610270916202DB011896ED91FC91199757
S1130890882331F01995892B89F30FEF1FEFEECFE1
S11308A08AE01995892B11F4C80102C08FEF9FEFDC
S11308B0DF91CF911F910F9108952F923F924F9204
S11308C05F926F927F928F929F92AF92BF92CF92DC
S11308D0DF92EF92FF920F931F93CF93DF93CDB7E5
S11308E0DEB72C970FB6F894DEBF0FBECDBF7C01E8
S11308F06B018A01FC0117821682838181FFB0C1DA
S1130900CE0101964C01F7019381F60193FD859187
S113091093FF81916F01882309F49EC1853239F4D4
S113092093FD859193FF81916F01853221F4B70185
S113093090E00FD3E8CF512C312C20E02032A0F4EA
S11309408B3269F030F4803259F0833269F42061DB
S11309502CC08D3239F0803339F4216026C02260F6
S1130960246023C0286021C027FD27C030ED380F44
S11309703A3078F426FF06C0FAE05F9E300D112469
S1130980532E13C08AE0389E300D1124332E20627A
S11309900CC08E3221F426FD5FC1206406C08C3663
S11309A011F4206802C0883641F4F60193FD859164
S11309B093FF81916F018111C1CF982F9F7D955431
S11309C0933028F40C5F1F4FFFE3F9830DC0833687
S11309D031F0833771F0833509F057C021C0F80135
S11309E0808189830E5F1F4F44244394512C54010A
S11309F014C03801F2E06F0E711CF801A080B180C0
S1130A0026FF03C0652D70E002C06FEF7FEFC501C4
S1130A102C8794D22C0183012C852F77222E16C08B
S1130A203801F2E06F0E711CF801A080B18026FF3E
S1130A3003C0652D70E002C06FEF7FEFC5012C8706
S1130A406BD22C012C852068222E830123FC19C033
S1130A50832D90E048165906A0F4B70180E290E097
S1130A6078D23A94F5CFF50127FC859127FE819140
S1130A705F01B70190E06DD231103A94F1E04F1A62
S1130A8051084114510479F7DEC0843611F08936D7
S1130A9031F5F80127FF07C060817181828193815C
S1130AA00C5F1F4F08C060817181882777FD809596
S1130AB0982F0E5F1F4F2F76B22E97FF09C0909587
S1130AC08095709561957F4F8F4F9F4F2068B22E10
S1130AD02AE030E0A4016FD2A82EA81843C08537BD
S1130AE029F42F7EB22E2AE030E025C0F22FF97FC0
S1130AF0BF2E8F36C1F018F4883579F0ADC0803739
S1130B0019F0883721F0A8C02F2F2061B22EB4FE2F
S1130B100DC08B2D8460B82E09C024FF0AC09F2FFE
S1130B209660B92E06C028E030E005C020E130E030
S1130B3002C020E132E0F801B7FE07C06081718194
S1130B40828193810C5F1F4F06C06081718180E0B8
S1130B5090E00E5F1F4FA4012ED2A82EA818FB2DE3
S1130B60FF77BF2EB6FE0BC02B2D2E7FA51450F49D
S1130B70B4FE0AC0B2FC08C02B2D2E7E05C07A2C10
S1130B802B2D03C07A2C01C0752C24FF0DC0FE014F
S1130B90EA0DF11D8081803311F4297E09C022FF02
S1130BA006C07394739404C0822F867809F07394FA
S1130BB023FD12C020FF06C05A2C731418F4530CE2
S1130BC05718732C731460F4B70180E290E02C87FB
S1130BD0C0D173942C85F6CF731410F4371801C068
S1130BE0312C24FF11C0B70180E390E02C87B1D1F0
S1130BF02C8522FF16C021FF03C088E590E002C0C7
S1130C0088E790E0B7010CC0822F867851F021FD6F
S1130C1002C080E201C08BE227FD8DE2B70190E0C3
S1130C2098D1A51430F4B70180E390E092D15A949E
S1130C30F8CFAA94F401EA0DF11D8081B70190E088
S1130C4088D1A110F6CF332009F45DCEB70180E23C
S1130C5090E07FD13A94F7CFF7018681978102C063
S1130C608FEF9FEF2C960FB6F894DEBF0FBECDBF6B
S1130C70DF91CF911F910F91FF90EF90DF90CF9074
S1130C80BF90AF909F908F907F906F905F904F90A8
S1130C903F902F9008950F931F93CF93DF93869FD8
S1130CA08001879F100D969F100D1124C8010DD04F
S1130CB0EC01009721F0A80160E070E038D1CE018A
S1130CC0DF91CF911F910F910895CF93DF938230DD
S1130CD0910510F482E090E0E0916702F0916802DF
S1130CE020E030E0A0E0B0E0309739F1408151815C
S1130CF048175907B8F04817590771F4828193814E
S1130D00109729F013969C938E9312972CC090936E
S1130D1068028093670227C02115310531F042171C
S1130D20530718F0A901DB0101C0EF019A01BD01CD
S1130D30DF010280F381E02DD7CF21153105F9F0D1
S1130D40281B390B2430310580F48A819B8161157D
S1130D50710521F0FB019383828304C090936802A0
S1130D6080936702FE01329644C0FE01E20FF31F36
S1130D708193919322503109398328833AC0209179
S1130D80650230916602232B41F4209102023091D6
S1130D900302309366022093650220910002309191
S1130DA001022115310541F42DB73EB740910402EB
S1130DB050910502241B350BE0916502F091660207
S1130DC0E217F307A0F42E1B3F0B2817390778F01E
S1130DD0AC014E5F5F4F2417350748F04E0F5F1F7D
S1130DE050936602409365028193919302C0E0E0C0
S1130DF0F0E0CF01DF91CF910895CF93DF93009777
S1130E0009F487C0FC01329713821282C0916702F1
S1130E10D0916802209781F420813181280F391FF5
S1130E2080916502909166028217930779F5F09399
S1130E306602E09365026DC0DE0120E030E0AE178B
S1130E40BF0750F412964D915C9113979D01411583
S1130E50510509F1DA01F3CFB383A28340815181B3
S1130E60840F951F8A179B0771F48D919C9111979C
S1130E70840F951F02969183808312968D919C9185
S1130E801397938382832115310529F4F093680223
S1130E90E09367023EC0D9011396FC93EE93129738
S1130EA04D915D91A40FB51FEA17FB0779F480817A
S1130EB09181840F951F0296D90111969C938E936C
S1130EC08281938113969C938E931297E0E0F0E0D5
S1130ED08A819B81009719F0FE01EC01F9CFCE01C4
S1130EE0029628813981820F931F209165023091E7
S1130EF066022817390769F4309729F410926802BA
S1130F001092670202C013821282D0936602C093C9
S1130F106502DF91CF910895FC0105906150704006
S1130F200110D8F7809590958E0F9F1F0895DC01CE
S1130F3001C06D9341505040E0F70895FC016150A9
S1130F40704001900110D8F7809590958E0F9F1FE7
S1130F5008950F931F93CF93DF93182F092FEB015D
S1130F608B8181FD03C08FEF9FEF20C082FF10C0F3
S1130F704E815F812C813D81421753077CF4E881C7
S1130F80F9819F012F5F3F4F39832883108306C067
S1130F90E885F985812F1995892B29F72E813F81C1
S1130FA02F5F3F4F3F832E83812F902FDF91CF916F
S1130FB01F910F910895FA01AA27283051F1203189
S1130FC081F1E8946F936E7F6E5F7F4F8F4F9F4FD9
S1130FD0AF4FB1E03ED0B4E03CD0670F781F891F1B
S1130FE09A1FA11D680F791F8A1F911DA11D6A0FE9
S1130FF0711D811D911DA11D20D009F468943F919C
S11310002AE0269F11243019305D3193DEF6CF019A
S11310100895462F4770405D4193B3E00FD0C9F760
S1131020F6CF462F4F70405D4A3318F0495D31FDCD
S11310304052419302D0A9F7EACFB4E0A695979520
S1131040879577956795BA95C9F7009761057105F6
S113105008959B01AC010A2E069457954795379540
S11310602795BA95C9F7620F731F841F951FA01D9A
S10910700895F894FFCF7F
S1131076000069022000F8583A25346920593A25B7
S113108634690D004552524F5221204552524F5257
S113109621204D435032353135206973204E4F544B
S11310A620696E20636F6E66696775726174696F15
S11310B66E206D6F64652061667465722072657357
S10910C66574210D000019
S9030000FC
