S011000041546D6567613136322E737265634B
S11300000C9438000C9455000C9455000C94CD00BD
S11300100C9455000C9455000C9455000C94550008
S11300200C9455000C9455000C9455000C945500F8
S11300300C9455000C9455000C9455000C945500E8
S11300400C9455000C9455000C9455000C945500D8
S11300500C9455000C9455000C9455000C945500C8
S11300600C9455000C9455000C9455000C945500B8
S113007011241FBECFEFD4E0DEBFCDBF11E0A0E05E
S1130080B1E0ECE5F8E002C005900D92A63DB107A1
S1130090D9F721E0A6EDB1E001C01D92A53EB2075B
S11300A0E1F70E94D9000C942C040C9400008BB747
S11300B080628BBF86B78E7F86BF30980895809309
S11300C0001481E08093DA018091DA018111FCCF80
S11300D080910014089586E090E00E945F0090E013
S11300E09093D9018093D80187E090E00E945F004B
S11300F090E09093D7018093D6010895CF93DF9336
S113010086E090E00E945F00C82FD0E087E090E096
S11301100E945F00E82FF0E08091D8019091D9010E
S1130120C81BD90B44E64C9FC0014D9F900D112470
S11301302FE730E0B9010E940902D62FC72F809122
S1130140D6019091D701E81BF90B4E9FC0014F9F38
S1130150900D1124B9010E9409028D2F9C2F8C3916
S11301602FEF920714F48CE99FEF262F372F2C39A9
S11301704FEF340714F42CE93FEFAC0185369105B9
S113018014F044E650E0BA012536310514F024E6B3
S113019030E0C901DF91CF9108951F920F920FB6FD
S11301A00F9211241092DA010F900FBE0F901F903E
S11301B01895B89AB998BA9885B7806885BF0E948F
S11301C0FD018CE090E00E94A30386E091E00E9490
S11301D0AA030E9457008AE191E00E94AA0378943E
S11301E08DE291E00E94AA030E946B0082E491E0F8
S11301F00E94AA0389E591E00E94AA0380E00E947C
S113020026018DE691E00E94AA038FE791E00E9407
S1130210AA038BE090E00E943102EC01EE24E39407
S113022005E010E06894FF24F2F888B38E2588BBBB
S11302300E947E0019830883FA827B836C839D83EA
S11302408E8360E4CE010E943C01EFCFCF93C82F90
S11302500E94D6014FEF60E680E60E94B8014FEF9E
S113026060E680E70E94B8014C2F60EE8FE00E94A8
S1130270B8018A98CF910895FF920F931F93CF935B
S1130280DF93EC01062F603351F0603469F0603580
S113029009F042C00F2EF4E8FF2EF02D09C00F2EF6
S11302A0F1E8FF2EF02D04C00F2EF2E8FF2EF02D02
S11302B0802F0E94920183FDFBCF28813981B901EF
S11302C076956795769567957695679581E0800F25
S11302D00E94A10168816295660F607E82E0800FB2
S11302E00E94A1016A816F7085E0800F0E94A101C4
S11302F09A81992371F010E00A5FFE01E10FF11D6C
S11303006381802F810F0E94A1011F5F9A811917B9
S1130310A0F38F2D0E94B301DF91CF911F910F9114
S1130320FF900895CF93C82FC49883E00E94F001F2
S11303308C2F0E94F00180E00E94F001C49ACF91BA
S11303400895CF93DF93D82FC62FC49882E00E94DC
S1130350F0018D2F0E94F0018C2F0E94F001C49AAD
S1130360DF91CF910895C4980E94F001C49A089532
S11303701F93CF93DF93182FD62FC42FC49885E0F3
S11303800E94F001812F0E94F0018D2F0E94F00144
S11303908C2F0E94F001C49ADF91CF911F91089590
S11303A0C49880EC0E94F001C49A08950E94E90167
S11303B00E94D0018EE00E949201982F907E903886
S11303C029F085E991E00E94AA030895882391F316
S11303D0089587B3806B87BBBE9881E58DB9089576
S11303E08FB9779BFECF8FB108955D9BFECF8CB9FB
S11303F008955D99FECF8CB108958FE089B98AB1D3
S113040088618AB969EF71E085EF91E00E94580331
S1130410089597FB072E16F4009407D077FD09D0B2
S11304200E941D0207FC05D03EF4909581959F4FD4
S11304300895709561957F4F0895AA1BBB1B51E1E8
S113044007C0AA1FBB1FA617B70710F0A61BB70B40
S1130450881F991F5A95A9F780959095BC01CD01E5
S11304600895CF93DF938230910510F482E090E0F9
S1130470E091DD01F091DE0120E030E0A0E0B0E0A9
S1130480309739F14081518148175907B8F048171E
S1130490590771F482819381109729F013969C93E4
S11304A08E9312972CC09093DE018093DD0127C0B8
S11304B02115310531F04217530718F0A901DB016A
S11304C001C0EF019A01BD01DF010280F381E02D3B
S11304D0D7CF21153105F9F0281B390B243031050C
S11304E080F48A819B816115710521F0FB0193835E
S11304F0828304C09093DE018093DD01FE01329675
S113050044C0FE01E20FF31F8193919322503109FD
S1130510398328833AC02091DB013091DC01232BFD
S113052041F420910201309103013093DC012093C6
S1130530DB0120910001309101012115310541F4C5
S11305402DB73EB74091040150910501241B350B92
S1130550E091DB01F091DC01E217F307A0F42E1B1C
S11305603F0B2817390778F0AC014E5F5F4F241713
S1130570350748F04E0F5F1F5093DC014093DB01B9
S11305808193919302C0E0E0F0E0CF01DF91CF913D
S11305900895CF93DF93009709F487C0FC01329745
S11305A013821282C091DD01D091DE01209781F483
S11305B020813181280F391F8091DB019091DC016A
S11305C08217930779F5F093DC01E093DB016DC0AA
S11305D0DE0120E030E0AE17BF0750F412964D91D3
S11305E05C9113979D014115510509F1DA01F3CF8F
S11305F0B383A28340815181840F951F8A179B077F
S113060071F48D919C911197840F951F029691839B
S1130610808312968D919C911397938382832115E5
S1130620310529F4F093DE01E093DD013EC0D901E8
S11306301396FC93EE9312974D915D91A40FB51F01
S1130640EA17FB0779F480819181840F951F029644
S1130650D90111969C938E938281938113969C93D6
S11306608E931297E0E0F0E08A819B81009719F065
S1130670FE01EC01F9CFCE01029628813981820F67
S1130680931F2091DB013091DC012817390769F4AD
S1130690309729F41092DE011092DD0102C013821A
S11306A01282D093DC01C093DB01DF91CF910895D6
S11306B00F931F93CF93DF93EC018B01009731F4D9
S11306C06115710519F480E090E038C06EE070E0C7
S11306D081E090E00E94D703FC010097A1F380E839
S11306E083830115110571F01387028781E88383E1
S11306F08091DF019091E001892B21F4F093E001D6
S1130700E093DF012097C9F0D187C087838182609D
S113071083838091E1019091E201892B71F4F0933C
S1130720E201E093E1018091E3019091E401892BDE
S113073021F4F093E401E093E301CF01DF91CF9141
S11307401F910F9108956091E1017091E2010E945F
S1130750FA0308950F931F93CF93DF93E091E10180
S1130760F091E201238121FF1BC0EC0100E010E0C5
S113077089916091E1017091E201DB011896ED919C
S1130780FC911997882331F00995892B89F30FEF90
S11307901FEFEECF8AE00995892B11F4C80102C03E
S11307A08FEF9FEFDF91CF911F910F9108950F93DA
S11307B01F93CF93DF93869F8001879F100D969F91
S11307C0100D1124C8010E943102EC01009729F098
S11307D0A80160E070E00E94F303CE01DF91CF91A5
S11307E01F910F910895DC0101C06D934150504059
S11307F0E0F708950F931F93CF93DF93182F092FDA
S1130800EB018B8181FD03C08FEF9FEF20C082FF3E
S113081010C04E815F812C813D81421753077CF4C7
S1130820E881F9819F012F5F3F4F3983288310832B
S113083006C0E885F985812F0995892B29F72E8132
S11308403F812F5F3F4F3F832E83812F902FDF9176
S10F0850CF911F910F910895F894FFCFF1
S113085C0000E501200055415254090920696E69D4
S113086C7469616C697A65640D004144430909201B
S113087C696E697469616C697A65640D00496E749A
S113088C657272757074730920656E61626C65644F
S113089C0D004A6F79737469636B0920696E69740E
S11308AC69616C697A65640D004F4C4544090920F3
S11308BC696E697469616C697A65640D0053504999
S11308CC090920696E697469616C697A6564004D03
S11308DC435032353135090920696E697469616C8C
S11308EC697A6564004552524F5221204552524F49
S11308FC5221204D435032353135206973204E4FEF
S113090C5420696E20636F6E6669677572617469D1
S113091C6F6E206D6F6465206166746572207265FC
S109092C736574210D0047
S9030000FC
