S011000041546D6567613136322E737265634B
S11300000C9438000C9455000C9455000C94B700D3
S11300100C9455000C9455000C9455000C94550008
S11300200C9455000C9455000C9455000C945500F8
S11300300C9455000C9455000C9455000C945500E8
S11300400C9455000C9455000C9455000C945500D8
S11300500C9455000C9455000C9455000C945500C8
S11300600C9455000C9455000C9455000C945500B8
S113007011241FBECFEFD4E0DEBFCDBF12E0A0E05D
S1130080B1E0E0EEFEE002C005900D92A234B107AB
S1130090D9F722E0A2E4B2E001C01D92A135B20773
S11300A0E1F70E94C3000C946E070C9400008BB718
S11300B080628BBF86B78E7F86BF30980895809309
S11300C0001481E080934602809146028111FCCFA6
S11300D080910014089586E090E00E945F0090E013
S11300E0909345028093440287E090E00E945F0071
S11300F090E0909343028093420208950F931F93DC
S1130100CF93DF9386E090E00E945F00082F10E019
S113011087E090E00E945F00282F30E08091440245
S113012090914502081B190B64E6609FC001619F12
S1130130900D11244091420250914302241B350B2F
S1130140629FE001639FD00D1124EFE7F0E0BF014F
S11301500E94BA028B01CE01BF010E94BA029B0128
S1130160C901B801DF91CF911F910F9108951F929A
S11301700F920FB60F921124109246020F900FBEE9
S11301800F901F901895B89AB998BA9885B7806857
S113019085BF0E94AE028CE090E00E94680486E075
S11301A091E00E946F040E9457008AE191E00E944E
S11301B06F0478948DE291E00E946F040E946B00BA
S11301C082E491E00E946F0489E591E00E946F044B
S11301D080E00E946C018DE691E00E946F048FE73D
S11301E091E00E946F048BE090E00E94E202EC0137
S11301F0662463940F2EF5E98F2EF1E09F2EF02DE7
S11302000F2EFDEBAF2EF1E0BF2EF02D6894772476
S113021072F80F2EFAECCF2EF1E0DF2EF02D88B31A
S1130220862588BB87E090E00E945F00F82E86E078
S113023090E00E945F00082F85E090E00E945F003C
S1130240182F84E090E00E945F001F92FF921F929B
S11302500F931F921F931F928F939F928F920E94CE
S113026054040E947E00F62EE72E182F092F9F9328
S11302708F937F936F93BF92AF920E94540425E0B3
S113028030E0398328837A82EB82FC820D831E83DB
S1130290DF92CF920E945404E880F9800A811B8186
S11302A02C813D814E815F81688579858A850E9494
S11302B0D80160E4CE010E9482018FEF9FE2019792
S11302C0F1F700C000008DB79EB742960FB6F894C0
S11302D09EBF0FBE8DBFA3CFCF93C82F0E948702AE
S11302E04FEF60E680E60E9469024FEF60E680E728
S11302F00E9469024C2F60EE8FE00E9469028A9886
S1130300CF910895FF920F931F93CF93DF93EC0146
S1130310062F603351F0603469F0603509F042C053
S11303200F2EF4E8FF2EF02D09C00F2EF1E8FF2E5A
S1130330F02D04C00F2EF2E8FF2EF02D802F0E9426
S1130340430283FDFBCF28813981B90176956795F6
S1130350769567957695679581E0800F0E945202A5
S113036068816295660F607E82E0800F0E9452026F
S11303706A816F7085E0800F0E9452029A819923EE
S113038071F010E00A5FFE01E10FF11D6381802F1F
S1130390810F0E9452021F5F9A811917A0F38F2DBB
S11303A00E946402DF91CF911F910F91FF900895F5
S11303B0CF92DF92EF92FF920F931F93CF93DF932D
S11303C0CDB7DEB72B970FB6F894DEBF0FBECDBF07
S11303D0E982FA82C02E0B831C832D833E834F83D4
S11303E0588769877A878B871F920F938A818F93A7
S11303F089818F9385ED91E09F938F930E9454049C
S11304000F900F900F900F900F900F90002341F1D9
S11304108C811F928F938BEF91E09F938F930E9417
S113042054040F900F900F900F9081E08017C0F448
S11304307E01E5E0EE0EF11CDD24D39409EF11E01A
S1130440F70181917F011F928F931F930F930E9455
S11304505404D3940F900F900F900F90DC10F0CFB2
S11304608EEF91E00E946F042B960FB6F894DEBFD6
S11304700FBECDBFDF91CF911F910F91FF90EF90F1
S1130480DF90CF900895CF93C82FC49883E00E9443
S1130490A1028C2F0E94A10280E00E94A102C49AB2
S11304A0CF910895CF93DF93D82FC62FC49882E0BD
S11304B00E94A1028D2F0E94A1028C2F0E94A102F2
S11304C0C49ADF91CF910895C4980E94A102C49A5E
S11304D008951F93CF93DF93182FD62FC42FC4985A
S11304E085E00E94A102812F0E94A1028D2F0E940B
S11304F0A1028C2F0E94A102C49ADF91CF911F9177
S11305000895C49880EC0E94A102C49A08950E94A0
S11305109A020E9481028EE00E944302982F907EEC
S1130520903829F081E092E00E946F0408958823B6
S113053091F3089587B3806B87BBBE9881E58DB92D
S113054008958FB9779BFECF8FB108955D9BFECF41
S11305508CB908955D99FECF8CB108958FE089B967
S11305608AB188618AB96AEA72E086EA92E00E94F6
S11305700904089597FB072E16F4009407D077FD1D
S113058009D00E94CE0207FC05D03EF490958195D7
S11305909F4F0895709561957F4F0895AA1BBB1BCB
S11305A051E107C0AA1FBB1FA617B70710F0A61B6F
S11305B0B70B881F991F5A95A9F780959095BC0190
S11305C0CD010895CF93DF938230910510F482E03A
S11305D090E0E0914902F0914A0220E030E0A0E08E
S11305E0B0E0309739F14081518148175907B8F08C
S11305F04817590771F482819381109729F0139653
S11306009C938E9312972CC090934A028093490234
S113061027C02115310531F04217530718F0A901FD
S1130620DB0101C0EF019A01BD01DF010280F3810A
S1130630E02DD7CF21153105F9F0281B390B2430D3
S1130640310580F48A819B816115710521F0FB01DC
S11306509383828304C090934A0280934902FE01EB
S1130660329644C0FE01E20FF31F8193919322500E
S11306703109398328833AC02091470230914802D6
S1130680232B41F42091020130910301309348025D
S11306902093470220910001309101012115310579
S11306A041F42DB73EB74091040150910501241B3C
S11306B0350BE0914702F0914802E217F307A0F4EA
S11306C02E1B3F0B2817390778F0AC014E5F5F4FA4
S11306D02417350748F04E0F5F1F5093480240938C
S11306E047028193919302C0E0E0F0E0CF01DF91F3
S11306F0CF910895CF93DF93009709F487C0FC014D
S1130700329713821282C0914902D0914A022097F3
S113071081F420813181280F391F80914702909103
S113072048028217930779F5F0934802E093470251
S11307306DC0DE0120E030E0AE17BF0750F4129622
S11307404D915C9113979D014115510509F1DA0111
S1130750F3CFB383A28340815181840F951F8A17FD
S11307609B0771F48D919C911197840F951F0296AC
S11307709183808312968D919C91139793838283A6
S11307802115310529F4F0934A02E09349023EC051
S1130790D9011396FC93EE9312974D915D91A40F9A
S11307A0B51FEA17FB0779F480819181840F951FA7
S11307B00296D90111969C938E938281938113960C
S11307C09C938E931297E0E0F0E08A819B810097DE
S11307D019F0FE01EC01F9CFCE010296288139818E
S11307E0820F931F2091470230914802281739073E
S11307F069F4309729F410924A021092490202C017
S113080013821282D0934802C0934702DF91CF91A2
S113081008950F931F93CF93DF93EC018B010097FF
S113082031F46115710519F480E090E038C06EE090
S113083070E081E090E00E946E06FC010097A1F355
S113084080E883830115110571F01387028781E81D
S1130850838380914B0290914C02892B21F4F09375
S11308604C02E0934B022097C9F0D187C087838163
S11308708260838380914D0290914E02892B71F4A2
S1130880F0934E02E0934D0280914F0290915002FA
S1130890892B21F4F0935002E0934F02CF01DF91B2
S11308A0CF911F910F910895A0E0B0E0EAE5F4E044
S11308B00C944707FE01359661917191AF018091C7
S11308C04D0290914E020E949C04E2E00C94630756
S11308D060914D0270914E020E94A70608950F93F5
S11308E01F93CF93DF93E0914D02F0914E02238149
S11308F021FF1BC0EC0100E010E0899160914D02E2
S113090070914E02DB011896ED91FC9119978823A2
S113091031F00995892B89F30FEF1FEFEECF8AE0B1
S11309200995892B11F4C80102C08FEF9FEFDF9165
S1130930CF911F910F910895ACE0B0E0E2EAF4E0AA
S11309400C9437077C016B018A01FC011782168223
S1130950838181FFBDC1CE0101964C01F7019381D2
S1130960F60193FD859193FF81916F01882309F42A
S1130970ABC1853239F493FD859193FF81916F0169
S1130980853229F4B70190E00E94A706E7CF512CE5
S1130990312C20E02032A0F48B3269F030F4803224
S11309A059F0833269F420612CC08D3239F08033E0
S11309B039F4216026C02260246023C0286021C04D
S11309C027FD27C030ED380F3A3078F426FF06C0F3
S11309D0FAE05F9E300D1124532E13C08AE0389E36
S11309E0300D1124332E20620CC08E3221F426FDEA
S11309F06BC1206406C08C3611F4206802C08836AE
S1130A0041F4F60193FD859193FF81916F0181116A
S1130A10C1CF982F9F7D9554933028F40C5F1F4FBE
S1130A20FFE3F9830DC0833631F0833771F08335EA
S1130A3009F05BC022C0F801808189830E5F1F4FDB
S1130A4044244394512C540115C03801F2E06F0E34
S1130A50711CF801A080B18026FF03C0652D70E0F1
S1130A6002C06FEF7FEFC5012C870E949C062C010A
S1130A7083012C852F77222E17C03801F2E06F0EE8
S1130A80711CF801A080B18026FF03C0652D70E0C1
S1130A9002C06FEF7FEFC5012C870E948A062C01EC
S1130AA02C852068222E830123FC1BC0832D90E01B
S1130AB048165906B0F4B70180E290E00E94A706F8
S1130AC03A94F4CFF50127FC859127FE81915F01CB
S1130AD0B70190E00E94A70631103A94F1E04F1A52
S1130AE051084114510471F7E5C0843611F0893678
S1130AF039F5F80127FF07C06081718182819381F4
S1130B000C5F1F4F08C060817181882777FD809535
S1130B10982F0E5F1F4F2F76B22E97FF09C0909526
S1130B208095709561957F4F8F4F9F4F2068B22EAF
S1130B302AE030E0A4010E94D906A82EA81844C0D7
S1130B40853729F42F7EB22E2AE030E025C0F22F1B
S1130B50F97FBF2E8F36C1F018F4883579F0B4C010
S1130B60803719F0883721F0AFC02F2F2061B22EC3
S1130B70B4FE0DC08B2D8460B82E09C024FF0AC0BA
S1130B809F2F9660B92E06C028E030E005C020E112
S1130B9030E002C020E132E0F801B7FE07C0608116
S1130BA07181828193810C5F1F4F06C060817181C6
S1130BB080E090E00E5F1F4FA4010E94D906A82E8A
S1130BC0A818FB2DFF77BF2EB6FE0BC02B2D2E7F52
S1130BD0A51450F4B4FE0AC0B2FC08C02B2D2E7E1E
S1130BE005C07A2C2B2D03C07A2C01C0752C24FF50
S1130BF00DC0FE01EA0DF11D8081803311F4297EC0
S1130C0009C022FF06C07394739404C0822F8678AF
S1130C1009F0739423FD13C020FF06C05A2C7314EB
S1130C2018F4530C5718732C731468F4B70180E24A
S1130C3090E02C870E94A70673942C85F5CF73143B
S1130C4010F4371801C0312C24FF12C0B70180E31F
S1130C5090E02C870E94A7062C8522FF17C021FF55
S1130C6003C088E590E002C088E790E0B7010CC0BB
S1130C70822F867859F021FD02C080E201C08BE208
S1130C8027FD8DE2B70190E00E94A706A51438F471
S1130C90B70180E390E00E94A7065A94F7CFAA9484
S1130CA0F401EA0DF11D8081B70190E00E94A706CE
S1130CB0A110F5CF332009F451CEB70180E290E0C2
S1130CC00E94A7063A94F6CFF7018681978102C065
S1130CD08FEF9FEF2C96E2E10C9453070F931F9331
S1130CE0CF93DF93869F8001879F100D969F100DF1
S1130CF01124C8010E94E202EC01009729F0A80126
S1130D0060E070E00E949506CE01DF91CF911F91C3
S1130D100F910895FC010590615070400110D8F7BF
S1130D20809590958E0F9F1F0895DC0101C06D93EF
S1130D3041505040E0F70895FC016150704001902B
S1130D400110D8F7809590958E0F9F1F08950F93EB
S1130D501F93CF93DF93182F092FEB018B8181FD14
S1130D6003C08FEF9FEF20C082FF10C04E815F81D0
S1130D702C813D81421753077CF4E881F9819F015E
S1130D802F5F3F4F39832883108306C0E885F98598
S1130D90812F0995892B29F72E813F812F5F3F4FA2
S1130DA03F832E83812F902FDF91CF911F910F913D
S1130DB00895FA01AA27283051F1203181F1E894ED
S1130DC06F936E7F6E5F7F4F8F4F9F4FAF4FB1E03A
S1130DD03ED0B4E03CD0670F781F891F9A1FA11D35
S1130DE0680F791F8A1F911DA11D6A0F711D811D36
S1130DF0911DA11D20D009F468943F912AE0269FFB
S1130E0011243019305D3193DEF6CF010895462F59
S1130E104770405D4193B3E00FD0C9F7F6CF462F3A
S1130E204F70405D4A3318F0495D31FD40524193A3
S1130E3002D0A9F7EACFB4E0A69597958795779560
S1130E406795BA95C9F700976105710508959B01E7
S1130E50AC010A2E06945795479537952795BA9570
S1130E60C9F7620F731F841F951FA01D08952F9249
S1130E703F924F925F926F927F928F929F92AF9226
S1130E80BF92CF92DF92EF92FF920F931F93CF9373
S1130E90DF93CDB7DEB7CA1BDB0B0FB6F894DEBF0A
S1130EA00FBECDBF09942A88398848885F846E8430
S1130EB07D848C849B84AA84B984C884DF80EE807A
S1130EC0FD800C811B81AA81B981CE0FD11D0FB683
S1130ED0F894DEBF0FBECDBFED010895F894FFCFA7
S1130EE000005102200055415254090920696E69DD
S1130EF07469616C697A65640D0041444309092091
S1130F00696E697469616C697A65640D00496E740F
S1130F10657272757074730920656E61626C6564C4
S1130F200D004A6F79737469636B0920696E697483
S1130F3069616C697A65640D004F4C454409092068
S1130F40696E697469616C697A65640D005350490E
S1130F50090920696E697469616C697A6564004D78
S1130F60435032353135090920696E697469616C01
S1130F70697A656400616463313A2025692C2061D3
S1130F806463323A2025692C20616463333A202556
S1130F90692C20616463343A2025690A00583A2593
S1130FA0346920593A2534690D0073656E64696E9D
S1130FB0673A20200063616E5F6D657373616765D6
S1130FC05F742869643A25642C206C656E3A256444
S1130FD02C20646174613A7B002C202564007D29F7
S1130FE0004552524F5221204552524F5221204D1A
S1130FF0435032353135206973204E4F5420696E89
S113100020636F6E66696775726174696F6E206DB7
S11310106F646520616674657220726573657421FE
S10510200D00BD
S9030000FC
